{
  "_format": "hh-sol-artifact-1",
  "contractName": "MyEpicNFT",
  "sourceName": "contracts/MyEpicNFT.sol",
  "abi": [
    {
      "inputs": [],
      "stateMutability": "nonpayable",
      "type": "constructor"
    },
    {
      "anonymous": false,
      "inputs": [
        {
          "indexed": true,
          "internalType": "address",
          "name": "owner",
          "type": "address"
        },
        {
          "indexed": true,
          "internalType": "address",
          "name": "approved",
          "type": "address"
        },
        {
          "indexed": true,
          "internalType": "uint256",
          "name": "tokenId",
          "type": "uint256"
        }
      ],
      "name": "Approval",
      "type": "event"
    },
    {
      "anonymous": false,
      "inputs": [
        {
          "indexed": true,
          "internalType": "address",
          "name": "owner",
          "type": "address"
        },
        {
          "indexed": true,
          "internalType": "address",
          "name": "operator",
          "type": "address"
        },
        {
          "indexed": false,
          "internalType": "bool",
          "name": "approved",
          "type": "bool"
        }
      ],
      "name": "ApprovalForAll",
      "type": "event"
    },
    {
      "anonymous": false,
      "inputs": [
        {
          "indexed": false,
          "internalType": "address",
          "name": "sender",
          "type": "address"
        },
        {
          "indexed": false,
          "internalType": "uint256",
          "name": "tokenId",
          "type": "uint256"
        }
      ],
      "name": "NewEpicNFTMinted",
      "type": "event"
    },
    {
      "anonymous": false,
      "inputs": [
        {
          "indexed": true,
          "internalType": "address",
          "name": "from",
          "type": "address"
        },
        {
          "indexed": true,
          "internalType": "address",
          "name": "to",
          "type": "address"
        },
        {
          "indexed": true,
          "internalType": "uint256",
          "name": "tokenId",
          "type": "uint256"
        }
      ],
      "name": "Transfer",
      "type": "event"
    },
    {
      "inputs": [
        {
          "internalType": "address",
          "name": "to",
          "type": "address"
        },
        {
          "internalType": "uint256",
          "name": "tokenId",
          "type": "uint256"
        }
      ],
      "name": "approve",
      "outputs": [],
      "stateMutability": "nonpayable",
      "type": "function"
    },
    {
      "inputs": [
        {
          "internalType": "address",
          "name": "owner",
          "type": "address"
        }
      ],
      "name": "balanceOf",
      "outputs": [
        {
          "internalType": "uint256",
          "name": "",
          "type": "uint256"
        }
      ],
      "stateMutability": "view",
      "type": "function"
    },
    {
      "inputs": [
        {
          "internalType": "int256",
          "name": "_number",
          "type": "int256"
        }
      ],
      "name": "changeMaxMintedNumber",
      "outputs": [],
      "stateMutability": "nonpayable",
      "type": "function"
    },
    {
      "inputs": [
        {
          "internalType": "address",
          "name": "_newOwner",
          "type": "address"
        }
      ],
      "name": "changeOwner",
      "outputs": [],
      "stateMutability": "nonpayable",
      "type": "function"
    },
    {
      "inputs": [
        {
          "internalType": "uint256",
          "name": "tokenId",
          "type": "uint256"
        }
      ],
      "name": "getApproved",
      "outputs": [
        {
          "internalType": "address",
          "name": "",
          "type": "address"
        }
      ],
      "stateMutability": "view",
      "type": "function"
    },
    {
      "inputs": [],
      "name": "getMintedNumber",
      "outputs": [
        {
          "internalType": "int256",
          "name": "",
          "type": "int256"
        }
      ],
      "stateMutability": "view",
      "type": "function"
    },
    {
      "inputs": [],
      "name": "getTotalMaxMintedNumber",
      "outputs": [
        {
          "internalType": "int256",
          "name": "",
          "type": "int256"
        }
      ],
      "stateMutability": "view",
      "type": "function"
    },
    {
      "inputs": [
        {
          "internalType": "address",
          "name": "owner",
          "type": "address"
        },
        {
          "internalType": "address",
          "name": "operator",
          "type": "address"
        }
      ],
      "name": "isApprovedForAll",
      "outputs": [
        {
          "internalType": "bool",
          "name": "",
          "type": "bool"
        }
      ],
      "stateMutability": "view",
      "type": "function"
    },
    {
      "inputs": [],
      "name": "makeAnEpicNFT",
      "outputs": [],
      "stateMutability": "nonpayable",
      "type": "function"
    },
    {
      "inputs": [],
      "name": "maxMintedNumber",
      "outputs": [
        {
          "internalType": "int256",
          "name": "",
          "type": "int256"
        }
      ],
      "stateMutability": "view",
      "type": "function"
    },
    {
      "inputs": [],
      "name": "mintedNumber",
      "outputs": [
        {
          "internalType": "int256",
          "name": "",
          "type": "int256"
        }
      ],
      "stateMutability": "view",
      "type": "function"
    },
    {
      "inputs": [],
      "name": "name",
      "outputs": [
        {
          "internalType": "string",
          "name": "",
          "type": "string"
        }
      ],
      "stateMutability": "view",
      "type": "function"
    },
    {
      "inputs": [],
      "name": "owner",
      "outputs": [
        {
          "internalType": "address",
          "name": "",
          "type": "address"
        }
      ],
      "stateMutability": "view",
      "type": "function"
    },
    {
      "inputs": [
        {
          "internalType": "uint256",
          "name": "tokenId",
          "type": "uint256"
        }
      ],
      "name": "ownerOf",
      "outputs": [
        {
          "internalType": "address",
          "name": "",
          "type": "address"
        }
      ],
      "stateMutability": "view",
      "type": "function"
    },
    {
      "inputs": [
        {
          "internalType": "uint256",
          "name": "_tokenId",
          "type": "uint256"
        }
      ],
      "name": "pickRandomColor",
      "outputs": [
        {
          "internalType": "string",
          "name": "",
          "type": "string"
        }
      ],
      "stateMutability": "view",
      "type": "function"
    },
    {
      "inputs": [
        {
          "internalType": "uint256",
          "name": "_tokenId",
          "type": "uint256"
        }
      ],
      "name": "pickRandomFirstWord",
      "outputs": [
        {
          "internalType": "string",
          "name": "",
          "type": "string"
        }
      ],
      "stateMutability": "view",
      "type": "function"
    },
    {
      "inputs": [
        {
          "internalType": "uint256",
          "name": "_tokenId",
          "type": "uint256"
        }
      ],
      "name": "pickRandomSecondWord",
      "outputs": [
        {
          "internalType": "string",
          "name": "",
          "type": "string"
        }
      ],
      "stateMutability": "view",
      "type": "function"
    },
    {
      "inputs": [
        {
          "internalType": "uint256",
          "name": "_tokenId",
          "type": "uint256"
        }
      ],
      "name": "pickRandomThirdWord",
      "outputs": [
        {
          "internalType": "string",
          "name": "",
          "type": "string"
        }
      ],
      "stateMutability": "view",
      "type": "function"
    },
    {
      "inputs": [
        {
          "internalType": "string[]",
          "name": "_items",
          "type": "string[]"
        },
        {
          "internalType": "string",
          "name": "_word",
          "type": "string"
        },
        {
          "internalType": "uint256",
          "name": "_tokenId",
          "type": "uint256"
        }
      ],
      "name": "randomItems",
      "outputs": [
        {
          "internalType": "string",
          "name": "",
          "type": "string"
        }
      ],
      "stateMutability": "pure",
      "type": "function"
    },
    {
      "inputs": [
        {
          "internalType": "address",
          "name": "from",
          "type": "address"
        },
        {
          "internalType": "address",
          "name": "to",
          "type": "address"
        },
        {
          "internalType": "uint256",
          "name": "tokenId",
          "type": "uint256"
        }
      ],
      "name": "safeTransferFrom",
      "outputs": [],
      "stateMutability": "nonpayable",
      "type": "function"
    },
    {
      "inputs": [
        {
          "internalType": "address",
          "name": "from",
          "type": "address"
        },
        {
          "internalType": "address",
          "name": "to",
          "type": "address"
        },
        {
          "internalType": "uint256",
          "name": "tokenId",
          "type": "uint256"
        },
        {
          "internalType": "bytes",
          "name": "_data",
          "type": "bytes"
        }
      ],
      "name": "safeTransferFrom",
      "outputs": [],
      "stateMutability": "nonpayable",
      "type": "function"
    },
    {
      "inputs": [
        {
          "internalType": "address",
          "name": "operator",
          "type": "address"
        },
        {
          "internalType": "bool",
          "name": "approved",
          "type": "bool"
        }
      ],
      "name": "setApprovalForAll",
      "outputs": [],
      "stateMutability": "nonpayable",
      "type": "function"
    },
    {
      "inputs": [
        {
          "internalType": "bytes4",
          "name": "interfaceId",
          "type": "bytes4"
        }
      ],
      "name": "supportsInterface",
      "outputs": [
        {
          "internalType": "bool",
          "name": "",
          "type": "bool"
        }
      ],
      "stateMutability": "view",
      "type": "function"
    },
    {
      "inputs": [],
      "name": "symbol",
      "outputs": [
        {
          "internalType": "string",
          "name": "",
          "type": "string"
        }
      ],
      "stateMutability": "view",
      "type": "function"
    },
    {
      "inputs": [
        {
          "internalType": "uint256",
          "name": "tokenId",
          "type": "uint256"
        }
      ],
      "name": "tokenURI",
      "outputs": [
        {
          "internalType": "string",
          "name": "",
          "type": "string"
        }
      ],
      "stateMutability": "view",
      "type": "function"
    },
    {
      "inputs": [
        {
          "internalType": "address",
          "name": "from",
          "type": "address"
        },
        {
          "internalType": "address",
          "name": "to",
          "type": "address"
        },
        {
          "internalType": "uint256",
          "name": "tokenId",
          "type": "uint256"
        }
      ],
      "name": "transferFrom",
      "outputs": [],
      "stateMutability": "nonpayable",
      "type": "function"
    }
  ],
  "bytecode": "0x608060405260405180610100016040528060d38152602001620063f060d39139600890805190602001906200003692919062001b61565b50604051806080016040528060568152602001620064c360569139600990805190602001906200006892919062001b61565b506040518061024001604052806040518060400160405280600781526020017f4a6972616979610000000000000000000000000000000000000000000000000081525081526020016040518060400160405280600681526020017f4e617275746f000000000000000000000000000000000000000000000000000081525081526020016040518060400160405280600681526020017f48696e617461000000000000000000000000000000000000000000000000000081525081526020016040518060400160405280600681526020017f536173756b65000000000000000000000000000000000000000000000000000081525081526020016040518060400160405280600781526020017f53616974616d610000000000000000000000000000000000000000000000000081525081526020016040518060400160405280600481526020017f476f6b750000000000000000000000000000000000000000000000000000000081525081526020016040518060400160405280600b81526020017f53756e67204a696e776f6f00000000000000000000000000000000000000000081525081526020016040518060400160405280600481526020017f4572656e0000000000000000000000000000000000000000000000000000000081525081526020016040518060400160405280600781526020017f4b616b617368690000000000000000000000000000000000000000000000000081525081526020016040518060400160405280600681526020017f4261746d616e000000000000000000000000000000000000000000000000000081525081526020016040518060400160405280600781526020017f49726f6e6d616e0000000000000000000000000000000000000000000000000081525081526020016040518060400160405280600581526020017f546f62657900000000000000000000000000000000000000000000000000000081525081526020016040518060400160405280600681526020017f446176696f6e000000000000000000000000000000000000000000000000000081525081526020016040518060400160405280600681526020017f4d696e61746f000000000000000000000000000000000000000000000000000081525081526020016040518060400160405280600681526020017f4d696b617361000000000000000000000000000000000000000000000000000081525081526020016040518060400160405280600881526020017f526f636b204c656500000000000000000000000000000000000000000000000081525081526020016040518060400160405280600381526020017f4a6f6e000000000000000000000000000000000000000000000000000000000081525081526020016040518060400160405280600681526020017f4d6972616e610000000000000000000000000000000000000000000000000000815250815250600a906012620004ab92919062001bf2565b506040518061028001604052806040518060400160405280600181526020017f310000000000000000000000000000000000000000000000000000000000000081525081526020016040518060400160405280600181526020017f320000000000000000000000000000000000000000000000000000000000000081525081526020016040518060400160405280600181526020017f330000000000000000000000000000000000000000000000000000000000000081525081526020016040518060400160405280600181526020017f340000000000000000000000000000000000000000000000000000000000000081525081526020016040518060400160405280600181526020017f350000000000000000000000000000000000000000000000000000000000000081525081526020016040518060400160405280600181526020017f360000000000000000000000000000000000000000000000000000000000000081525081526020016040518060400160405280600181526020017f370000000000000000000000000000000000000000000000000000000000000081525081526020016040518060400160405280600181526020017f380000000000000000000000000000000000000000000000000000000000000081525081526020016040518060400160405280600181526020017f390000000000000000000000000000000000000000000000000000000000000081525081526020016040518060400160405280600281526020017f313000000000000000000000000000000000000000000000000000000000000081525081526020016040518060400160405280600281526020017f313100000000000000000000000000000000000000000000000000000000000081525081526020016040518060400160405280600281526020017f313200000000000000000000000000000000000000000000000000000000000081525081526020016040518060400160405280600281526020017f313300000000000000000000000000000000000000000000000000000000000081525081526020016040518060400160405280600281526020017f313400000000000000000000000000000000000000000000000000000000000081525081526020016040518060400160405280600281526020017f313500000000000000000000000000000000000000000000000000000000000081525081526020016040518060400160405280600281526020017f313600000000000000000000000000000000000000000000000000000000000081525081526020016040518060400160405280600281526020017f313700000000000000000000000000000000000000000000000000000000000081525081526020016040518060400160405280600281526020017f313800000000000000000000000000000000000000000000000000000000000081525081526020016040518060400160405280600281526020017f313900000000000000000000000000000000000000000000000000000000000081525081526020016040518060400160405280600281526020017f3230000000000000000000000000000000000000000000000000000000000000815250815250600b9060146200096492919062001c59565b506040518061024001604052806040518060400160405280600481526020017ff09f98890000000000000000000000000000000000000000000000000000000081525081526020016040518060400160405280600481526020017ff09f94a50000000000000000000000000000000000000000000000000000000081525081526020016040518060400160405280600381526020017fe29ca8000000000000000000000000000000000000000000000000000000000081525081526020016040518060400160405280600481526020017ff09f94aa0000000000000000000000000000000000000000000000000000000081525081526020016040518060400160405280600481526020017ff09fa7a80000000000000000000000000000000000000000000000000000000081525081526020016040518060400160405280600481526020017ff09fa5b70000000000000000000000000000000000000000000000000000000081525081526020016040518060400160405280600481526020017ff09fa5870000000000000000000000000000000000000000000000000000000081525081526020016040518060400160405280600481526020017ff09f97bf0000000000000000000000000000000000000000000000000000000081525081526020016040518060400160405280600681526020017fe29a94efb88f000000000000000000000000000000000000000000000000000081525081526020016040518060400160405280600481526020017ff09f90ba0000000000000000000000000000000000000000000000000000000081525081526020016040518060400160405280600481526020017ff09f92a60000000000000000000000000000000000000000000000000000000081525081526020016040518060400160405280600481526020017ff09f8d800000000000000000000000000000000000000000000000000000000081525081526020016040518060400160405280600481526020017ff09f8c880000000000000000000000000000000000000000000000000000000081525081526020016040518060400160405280600481526020017ff09f92af0000000000000000000000000000000000000000000000000000000081525081526020016040518060400160405280600481526020017ff09f9a920000000000000000000000000000000000000000000000000000000081525081526020016040518060400160405280600481526020017ff09fa5880000000000000000000000000000000000000000000000000000000081525081526020016040518060400160405280600781526020017ff09f97a1efb88f0000000000000000000000000000000000000000000000000081525081526020016040518060400160405280600481526020017ff09f919100000000000000000000000000000000000000000000000000000000815250815250600c90601262000da792919062001bf2565b506040518061064001604052806040518060400160405280600781526020017f234646363633330000000000000000000000000000000000000000000000000081525081526020016040518060400160405280600781526020017f234646423339390000000000000000000000000000000000000000000000000081525081526020016040518060400160405280600781526020017f234646333346460000000000000000000000000000000000000000000000000081525081526020016040518060400160405280600781526020017f234646464639390000000000000000000000000000000000000000000000000081525081526020016040518060400160405280600781526020017f233030423345360000000000000000000000000000000000000000000000000081525081526020016040518060400160405280600781526020017f234536423333330000000000000000000000000000000000000000000000000081525081526020016040518060400160405280600781526020017f233333363645360000000000000000000000000000000000000000000000000081525081526020016040518060400160405280600781526020017f233939393936360000000000000000000000000000000000000000000000000081525081526020016040518060400160405280600781526020017f233939464639390000000000000000000000000000000000000000000000000081525081526020016040518060400160405280600781526020017f234233344434440000000000000000000000000000000000000000000000000081525081526020016040518060400160405280600781526020017f233830423330300000000000000000000000000000000000000000000000000081525081526020016040518060400160405280600781526020017f233830393930300000000000000000000000000000000000000000000000000081525081526020016040518060400160405280600781526020017f234536423342330000000000000000000000000000000000000000000000000081525081526020016040518060400160405280600781526020017f233636383042330000000000000000000000000000000000000000000000000081525081526020016040518060400160405280600781526020017f233636393931410000000000000000000000000000000000000000000000000081525081526020016040518060400160405280600781526020017f234646393945360000000000000000000000000000000000000000000000000081525081526020016040518060400160405280600781526020017f234343464631410000000000000000000000000000000000000000000000000081525081526020016040518060400160405280600781526020017f234646314136360000000000000000000000000000000000000000000000000081525081526020016040518060400160405280600781526020017f234536333331410000000000000000000000000000000000000000000000000081525081526020016040518060400160405280600781526020017f233333464643430000000000000000000000000000000000000000000000000081525081526020016040518060400160405280600781526020017f233636393934440000000000000000000000000000000000000000000000000081525081526020016040518060400160405280600781526020017f234233363643430000000000000000000000000000000000000000000000000081525081526020016040518060400160405280600781526020017f233444383030300000000000000000000000000000000000000000000000000081525081526020016040518060400160405280600781526020017f234233333330300000000000000000000000000000000000000000000000000081525081526020016040518060400160405280600781526020017f234343383043430000000000000000000000000000000000000000000000000081525081526020016040518060400160405280600781526020017f233636363634440000000000000000000000000000000000000000000000000081525081526020016040518060400160405280600781526020017f233939314146460000000000000000000000000000000000000000000000000081525081526020016040518060400160405280600781526020017f234536363646460000000000000000000000000000000000000000000000000081525081526020016040518060400160405280600781526020017f233444423346460000000000000000000000000000000000000000000000000081525081526020016040518060400160405280600781526020017f233141423339390000000000000000000000000000000000000000000000000081525081526020016040518060400160405280600781526020017f234536363642330000000000000000000000000000000000000000000000000081525081526020016040518060400160405280600781526020017f233333393931410000000000000000000000000000000000000000000000000081525081526020016040518060400160405280600781526020017f234343393939390000000000000000000000000000000000000000000000000081525081526020016040518060400160405280600781526020017f234233423331410000000000000000000000000000000000000000000000000081525081526020016040518060400160405280600781526020017f233030453638300000000000000000000000000000000000000000000000000081525081526020016040518060400160405280600781526020017f233444383036360000000000000000000000000000000000000000000000000081525081526020016040518060400160405280600781526020017f233830393938300000000000000000000000000000000000000000000000000081525081526020016040518060400160405280600781526020017f234536464638300000000000000000000000000000000000000000000000000081525081526020016040518060400160405280600781526020017f233141464633330000000000000000000000000000000000000000000000000081525081526020016040518060400160405280600781526020017f233939393933330000000000000000000000000000000000000000000000000081525081526020016040518060400160405280600781526020017f234646333338300000000000000000000000000000000000000000000000000081525081526020016040518060400160405280600781526020017f234343434330300000000000000000000000000000000000000000000000000081525081526020016040518060400160405280600781526020017f233636453634440000000000000000000000000000000000000000000000000081525081526020016040518060400160405280600781526020017f233444383043430000000000000000000000000000000000000000000000000081525081526020016040518060400160405280600781526020017f233939303042330000000000000000000000000000000000000000000000000081525081526020016040518060400160405280600781526020017f234536344436360000000000000000000000000000000000000000000000000081525081526020016040518060400160405280600781526020017f233444423338300000000000000000000000000000000000000000000000000081525081526020016040518060400160405280600781526020017f234646344434440000000000000000000000000000000000000000000000000081525081526020016040518060400160405280600781526020017f233939453645360000000000000000000000000000000000000000000000000081525081526020016040518060400160405280600781526020017f2336363636464600000000000000000000000000000000000000000000000000815250815250600d9060326200194a92919062001cc0565b506000600e556032600f553480156200196257600080fd5b506040518060400160405280600981526020017f5371756172654e465400000000000000000000000000000000000000000000008152506040518060400160405280600681526020017f53515541524500000000000000000000000000000000000000000000000000008152508160009080519060200190620019e792919062001b61565b50806001908051906020019062001a0092919062001b61565b50505062001a4e6040518060400160405280601e81526020017f54686973206973206d79204e465420636f6e74726163742e20576f616821000081525062001a9560201b620017321760201c565b33601060006101000a81548173ffffffffffffffffffffffffffffffffffffffff021916908373ffffffffffffffffffffffffffffffffffffffff16021790555062001ee1565b62001b358160405160240162001aac919062001df5565b6040516020818303038152906040527f41304fac000000000000000000000000000000000000000000000000000000007bffffffffffffffffffffffffffffffffffffffffffffffffffffffff19166020820180517bffffffffffffffffffffffffffffffffffffffffffffffffffffffff838183161783525050505062001b3860201b60201c565b50565b60008151905060006a636f6e736f6c652e6c6f679050602083016000808483855afa5050505050565b82805462001b6f9062001e6b565b90600052602060002090601f01602090048101928262001b93576000855562001bdf565b82601f1062001bae57805160ff191683800117855562001bdf565b8280016001018555821562001bdf579182015b8281111562001bde57825182559160200191906001019062001bc1565b5b50905062001bee919062001d27565b5090565b82805482825590600052602060002090810192821562001c46579160200282015b8281111562001c4557825182908051906020019062001c3492919062001b61565b509160200191906001019062001c13565b5b50905062001c55919062001d46565b5090565b82805482825590600052602060002090810192821562001cad579160200282015b8281111562001cac57825182908051906020019062001c9b92919062001b61565b509160200191906001019062001c7a565b5b50905062001cbc919062001d46565b5090565b82805482825590600052602060002090810192821562001d14579160200282015b8281111562001d1357825182908051906020019062001d0292919062001b61565b509160200191906001019062001ce1565b5b50905062001d23919062001d46565b5090565b5b8082111562001d4257600081600090555060010162001d28565b5090565b5b8082111562001d6a576000818162001d60919062001d6e565b5060010162001d47565b5090565b50805462001d7c9062001e6b565b6000825580601f1062001d90575062001db1565b601f01602090049060005260206000209081019062001db0919062001d27565b5b50565b600062001dc18262001e19565b62001dcd818562001e24565b935062001ddf81856020860162001e35565b62001dea8162001ed0565b840191505092915050565b6000602082019050818103600083015262001e11818462001db4565b905092915050565b600081519050919050565b600082825260208201905092915050565b60005b8381101562001e5557808201518184015260208101905062001e38565b8381111562001e65576000848401525b50505050565b6000600282049050600182168062001e8457607f821691505b6020821081141562001e9b5762001e9a62001ea1565b5b50919050565b7f4e487b7100000000000000000000000000000000000000000000000000000000600052602260045260246000fd5b6000601f19601f8301169050919050565b6144ff8062001ef16000396000f3fe608060405234801561001057600080fd5b506004361061018e5760003560e01c80639a0896af116100de578063b7b26af811610097578063c87b56dd11610071578063c87b56dd146104bb578063d4fa440f146104eb578063de9d132f14610509578063e985e9c5146105135761018e565b8063b7b26af81461043f578063b88d4fde1461046f578063c575757a1461048b5761018e565b80639a0896af1461037d578063a22cb4651461039b578063a6f9dae1146103b7578063afe45e0b146103d3578063b09adbfc146103f1578063b187301f1461040f5761018e565b806342842e0e1161014b5780636352211e116101255780636352211e146102e157806370a08231146103115780638da5cb5b1461034157806395d89b411461035f5761018e565b806342842e0e14610279578063514dc8c61461029557806351d25877146102c55761018e565b806301ffc9a71461019357806306fdde03146101c3578063081812fc146101e1578063095ea7b31461021157806323b872dd1461022d5780632de38d6814610249575b600080fd5b6101ad60048036038101906101a89190612cc2565b610543565b6040516101ba919061347d565b60405180910390f35b6101cb610625565b6040516101d891906134b3565b60405180910390f35b6101fb60048036038101906101f69190612d3d565b6106b7565b60405161020891906133ed565b60405180910390f35b61022b60048036038101906102269190612c07565b61073c565b005b61024760048036038101906102429190612b01565b610854565b005b610263600480360381019061025e9190612d3d565b6108b4565b60405161027091906134b3565b60405180910390f35b610293600480360381019061028e9190612b01565b6109ce565b005b6102af60048036038101906102aa9190612d3d565b6109ee565b6040516102bc91906134b3565b60405180910390f35b6102df60048036038101906102da9190612d14565b610b08565b005b6102fb60048036038101906102f69190612d3d565b610be6565b60405161030891906133ed565b60405180910390f35b61032b60048036038101906103269190612a9c565b610c98565b6040516103389190613793565b60405180910390f35b610349610d50565b60405161035691906133ed565b60405180910390f35b610367610d76565b60405161037491906134b3565b60405180910390f35b610385610e08565b6040516103929190613498565b60405180910390f35b6103b560048036038101906103b09190612bcb565b610e0e565b005b6103d160048036038101906103cc9190612a9c565b610e24565b005b6103db610f6a565b6040516103e89190613498565b60405180910390f35b6103f9610f74565b6040516104069190613498565b60405180910390f35b61042960048036038101906104249190612d3d565b610f7e565b60405161043691906134b3565b60405180910390f35b61045960048036038101906104549190612c43565b611098565b60405161046691906134b3565b60405180910390f35b61048960048036038101906104849190612b50565b61112a565b005b6104a560048036038101906104a09190612d3d565b61118c565b6040516104b291906134b3565b60405180910390f35b6104d560048036038101906104d09190612d3d565b6112a6565b6040516104e291906134b3565b60405180910390f35b6104f36113f8565b6040516105009190613498565b60405180910390f35b6105116113fe565b005b61052d60048036038101906105289190612ac5565b61169e565b60405161053a919061347d565b60405180910390f35b60007f80ac58cd000000000000000000000000000000000000000000000000000000007bffffffffffffffffffffffffffffffffffffffffffffffffffffffff1916827bffffffffffffffffffffffffffffffffffffffffffffffffffffffff1916148061060e57507f5b5e139f000000000000000000000000000000000000000000000000000000007bffffffffffffffffffffffffffffffffffffffffffffffffffffffff1916827bffffffffffffffffffffffffffffffffffffffffffffffffffffffff1916145b8061061e575061061d826117cb565b5b9050919050565b60606000805461063490613b22565b80601f016020809104026020016040519081016040528092919081815260200182805461066090613b22565b80156106ad5780601f10610682576101008083540402835291602001916106ad565b820191906000526020600020905b81548152906001019060200180831161069057829003601f168201915b5050505050905090565b60006106c282611835565b610701576040517f08c379a00000000000000000000000000000000000000000000000000000000081526004016106f8906136b3565b60405180910390fd5b6004600083815260200190815260200160002060009054906101000a900473ffffffffffffffffffffffffffffffffffffffff169050919050565b600061074782610be6565b90508073ffffffffffffffffffffffffffffffffffffffff168373ffffffffffffffffffffffffffffffffffffffff1614156107b8576040517f08c379a00000000000000000000000000000000000000000000000000000000081526004016107af906136f3565b60405180910390fd5b8073ffffffffffffffffffffffffffffffffffffffff166107d76118a1565b73ffffffffffffffffffffffffffffffffffffffff1614806108065750610805816108006118a1565b61169e565b5b610845576040517f08c379a000000000000000000000000000000000000000000000000000000000815260040161083c906135d3565b60405180910390fd5b61084f83836118a9565b505050565b61086561085f6118a1565b82611962565b6108a4576040517f08c379a000000000000000000000000000000000000000000000000000000000815260040161089b90613733565b60405180910390fd5b6108af838383611a40565b505050565b60606109c7600a805480602002602001604051908101604052809291908181526020016000905b828210156109875783829060005260206000200180546108fa90613b22565b80601f016020809104026020016040519081016040528092919081815260200182805461092690613b22565b80156109735780601f1061094857610100808354040283529160200191610973565b820191906000526020600020905b81548152906001019060200180831161095657829003601f168201915b5050505050815260200190600101906108db565b505050506040518060400160405280600a81526020017f46495253545f574f52440000000000000000000000000000000000000000000081525084611098565b9050919050565b6109e98383836040518060200160405280600081525061112a565b505050565b6060610b01600d805480602002602001604051908101604052809291908181526020016000905b82821015610ac1578382906000526020600020018054610a3490613b22565b80601f0160208091040260200160405190810160405280929190818152602001828054610a6090613b22565b8015610aad5780601f10610a8257610100808354040283529160200191610aad565b820191906000526020600020905b815481529060010190602001808311610a9057829003601f168201915b505050505081526020019060010190610a15565b505050506040518060400160405280600581526020017f434f4c4f5200000000000000000000000000000000000000000000000000000081525084611098565b9050919050565b601060009054906101000a900473ffffffffffffffffffffffffffffffffffffffff1673ffffffffffffffffffffffffffffffffffffffff163373ffffffffffffffffffffffffffffffffffffffff1614610b98576040517f08c379a0000000000000000000000000000000000000000000000000000000008152600401610b8f90613713565b60405180910390fd5b600f548113610bdc576040517f08c379a0000000000000000000000000000000000000000000000000000000008152600401610bd390613693565b60405180910390fd5b80600f8190555050565b6000806002600084815260200190815260200160002060009054906101000a900473ffffffffffffffffffffffffffffffffffffffff169050600073ffffffffffffffffffffffffffffffffffffffff168173ffffffffffffffffffffffffffffffffffffffff161415610c8f576040517f08c379a0000000000000000000000000000000000000000000000000000000008152600401610c8690613613565b60405180910390fd5b80915050919050565b60008073ffffffffffffffffffffffffffffffffffffffff168273ffffffffffffffffffffffffffffffffffffffff161415610d09576040517f08c379a0000000000000000000000000000000000000000000000000000000008152600401610d00906135f3565b60405180910390fd5b600360008373ffffffffffffffffffffffffffffffffffffffff1673ffffffffffffffffffffffffffffffffffffffff168152602001908152602001600020549050919050565b601060009054906101000a900473ffffffffffffffffffffffffffffffffffffffff1681565b606060018054610d8590613b22565b80601f0160208091040260200160405190810160405280929190818152602001828054610db190613b22565b8015610dfe5780601f10610dd357610100808354040283529160200191610dfe565b820191906000526020600020905b815481529060010190602001808311610de157829003601f168201915b5050505050905090565b600f5481565b610e20610e196118a1565b8383611ca7565b5050565b601060009054906101000a900473ffffffffffffffffffffffffffffffffffffffff1673ffffffffffffffffffffffffffffffffffffffff163373ffffffffffffffffffffffffffffffffffffffff1614610eb4576040517f08c379a0000000000000000000000000000000000000000000000000000000008152600401610eab90613713565b60405180910390fd5b80600073ffffffffffffffffffffffffffffffffffffffff168173ffffffffffffffffffffffffffffffffffffffff161415610f25576040517f08c379a0000000000000000000000000000000000000000000000000000000008152600401610f1c90613753565b60405180910390fd5b81601060006101000a81548173ffffffffffffffffffffffffffffffffffffffff021916908373ffffffffffffffffffffffffffffffffffffffff1602179055505050565b6000600f54905090565b6000600e54905090565b6060611091600b805480602002602001604051908101604052809291908181526020016000905b82821015611051578382906000526020600020018054610fc490613b22565b80601f0160208091040260200160405190810160405280929190818152602001828054610ff090613b22565b801561103d5780601f106110125761010080835404028352916020019161103d565b820191906000526020600020905b81548152906001019060200180831161102057829003601f168201915b505050505081526020019060010190610fa5565b505050506040518060400160405280600b81526020017f5345434f4e445f574f524400000000000000000000000000000000000000000081525084611098565b9050919050565b606060006110ce846110a985611e14565b6040516020016110ba92919061328c565b604051602081830303815290604052611fc1565b90508451816110dd9190613bce565b9050848181518110611118577f4e487b7100000000000000000000000000000000000000000000000000000000600052603260045260246000fd5b60200260200101519150509392505050565b61113b6111356118a1565b83611962565b61117a576040517f08c379a000000000000000000000000000000000000000000000000000000000815260040161117190613733565b60405180910390fd5b61118684848484611ff4565b50505050565b606061129f600c805480602002602001604051908101604052809291908181526020016000905b8282101561125f5783829060005260206000200180546111d290613b22565b80601f01602080910402602001604051908101604052809291908181526020018280546111fe90613b22565b801561124b5780601f106112205761010080835404028352916020019161124b565b820191906000526020600020905b81548152906001019060200180831161122e57829003601f168201915b5050505050815260200190600101906111b3565b505050506040518060400160405280600a81526020017f54484952445f574f52440000000000000000000000000000000000000000000081525084611098565b9050919050565b60606112b182611835565b6112f0576040517f08c379a00000000000000000000000000000000000000000000000000000000081526004016112e790613673565b60405180910390fd5b600060066000848152602001908152602001600020805461131090613b22565b80601f016020809104026020016040519081016040528092919081815260200182805461133c90613b22565b80156113895780601f1061135e57610100808354040283529160200191611389565b820191906000526020600020905b81548152906001019060200180831161136c57829003601f168201915b50505050509050600061139a612050565b90506000815114156113b05781925050506113f3565b6000825111156113e55780826040516020016113cd92919061328c565b604051602081830303815290604052925050506113f3565b6113ee84612067565b925050505b919050565b600e5481565b600f54600e5412611444576040517f08c379a000000000000000000000000000000000000000000000000000000000815260040161143b90613773565b60405180910390fd5b6000611450600761210e565b9050600061145d826108b4565b9050600061146a83610f7e565b905060006114778461118c565b90506000838383604051602001611490939291906132df565b6040516020818303038152906040529050600084846040516020016114b69291906132b0565b604051602081830303815290604052905060006114d2876109ee565b905060006008826009866040516020016114ef949392919061331b565b604051602081830303815290604052905060006115348461150f8461211c565b604051602001611520929190613386565b60405160208183030381529060405261211c565b905060008160405160200161154991906133cb565b60405160208183030381529060405290506115986040518060400160405280601581526020017f0a2d2d2d2d2d2d2d2d2d2d2d2d2d2d2d2d2d2d2d2d0000000000000000000000815250611732565b6115c0816040516020016115ac9190613364565b604051602081830303815290604052611732565b6115fe6040518060400160405280601581526020017f2d2d2d2d2d2d2d2d2d2d2d2d2d2d2d2d2d2d2d2d0a0000000000000000000000815250611732565b611608338b6122bb565b6116128a826122d9565b61161c600761234d565b6001600e600082825461162f91906138b9565b92505081905550611659604051806060016040528060258152602001614465602591398b33612363565b7febb98688741ffa4c7589bf325de30cf7becb63de567842e1ccdb6cb949fdc82c338b60405161168a929190613454565b60405180910390a150505050505050505050565b6000600560008473ffffffffffffffffffffffffffffffffffffffff1673ffffffffffffffffffffffffffffffffffffffff16815260200190815260200160002060008373ffffffffffffffffffffffffffffffffffffffff1673ffffffffffffffffffffffffffffffffffffffff16815260200190815260200160002060009054906101000a900460ff16905092915050565b6117c88160405160240161174691906134b3565b6040516020818303038152906040527f41304fac000000000000000000000000000000000000000000000000000000007bffffffffffffffffffffffffffffffffffffffffffffffffffffffff19166020820180517bffffffffffffffffffffffffffffffffffffffffffffffffffffffff8381831617835250505050612402565b50565b60007f01ffc9a7000000000000000000000000000000000000000000000000000000007bffffffffffffffffffffffffffffffffffffffffffffffffffffffff1916827bffffffffffffffffffffffffffffffffffffffffffffffffffffffff1916149050919050565b60008073ffffffffffffffffffffffffffffffffffffffff166002600084815260200190815260200160002060009054906101000a900473ffffffffffffffffffffffffffffffffffffffff1673ffffffffffffffffffffffffffffffffffffffff1614159050919050565b600033905090565b816004600083815260200190815260200160002060006101000a81548173ffffffffffffffffffffffffffffffffffffffff021916908373ffffffffffffffffffffffffffffffffffffffff160217905550808273ffffffffffffffffffffffffffffffffffffffff1661191c83610be6565b73ffffffffffffffffffffffffffffffffffffffff167f8c5be1e5ebec7d5bd14f71427d1e84f3dd0314c0f7b2291e5b200ac8c7c3b92560405160405180910390a45050565b600061196d82611835565b6119ac576040517f08c379a00000000000000000000000000000000000000000000000000000000081526004016119a3906135b3565b60405180910390fd5b60006119b783610be6565b90508073ffffffffffffffffffffffffffffffffffffffff168473ffffffffffffffffffffffffffffffffffffffff161480611a2657508373ffffffffffffffffffffffffffffffffffffffff16611a0e846106b7565b73ffffffffffffffffffffffffffffffffffffffff16145b80611a375750611a36818561169e565b5b91505092915050565b8273ffffffffffffffffffffffffffffffffffffffff16611a6082610be6565b73ffffffffffffffffffffffffffffffffffffffff1614611ab6576040517f08c379a0000000000000000000000000000000000000000000000000000000008152600401611aad90613533565b60405180910390fd5b600073ffffffffffffffffffffffffffffffffffffffff168273ffffffffffffffffffffffffffffffffffffffff161415611b26576040517f08c379a0000000000000000000000000000000000000000000000000000000008152600401611b1d90613573565b60405180910390fd5b611b3183838361242b565b611b3c6000826118a9565b6001600360008573ffffffffffffffffffffffffffffffffffffffff1673ffffffffffffffffffffffffffffffffffffffff1681526020019081526020016000206000828254611b8c9190613a2e565b925050819055506001600360008473ffffffffffffffffffffffffffffffffffffffff1673ffffffffffffffffffffffffffffffffffffffff1681526020019081526020016000206000828254611be3919061394d565b92505081905550816002600083815260200190815260200160002060006101000a81548173ffffffffffffffffffffffffffffffffffffffff021916908373ffffffffffffffffffffffffffffffffffffffff160217905550808273ffffffffffffffffffffffffffffffffffffffff168473ffffffffffffffffffffffffffffffffffffffff167fddf252ad1be2c89b69c2b068fc378daa952ba7f163c4a11628f55a4df523b3ef60405160405180910390a4611ca2838383612430565b505050565b8173ffffffffffffffffffffffffffffffffffffffff168373ffffffffffffffffffffffffffffffffffffffff161415611d16576040517f08c379a0000000000000000000000000000000000000000000000000000000008152600401611d0d90613593565b60405180910390fd5b80600560008573ffffffffffffffffffffffffffffffffffffffff1673ffffffffffffffffffffffffffffffffffffffff16815260200190815260200160002060008473ffffffffffffffffffffffffffffffffffffffff1673ffffffffffffffffffffffffffffffffffffffff16815260200190815260200160002060006101000a81548160ff0219169083151502179055508173ffffffffffffffffffffffffffffffffffffffff168373ffffffffffffffffffffffffffffffffffffffff167f17307eab39ab6107e8899845ad3d59bd9653f200f220920489ca2b5937696c3183604051611e07919061347d565b60405180910390a3505050565b60606000821415611e5c576040518060400160405280600181526020017f30000000000000000000000000000000000000000000000000000000000000008152509050611fbc565b600082905060005b60008214611e8e578080611e7790613b85565b915050600a82611e8791906139a3565b9150611e64565b60008167ffffffffffffffff811115611ed0577f4e487b7100000000000000000000000000000000000000000000000000000000600052604160045260246000fd5b6040519080825280601f01601f191660200182016040528015611f025781602001600182028036833780820191505090505b5090505b60008514611fb557600182611f1b9190613a2e565b9150600a85611f2a9190613bce565b6030611f36919061394d565b60f81b818381518110611f72577f4e487b7100000000000000000000000000000000000000000000000000000000600052603260045260246000fd5b60200101907effffffffffffffffffffffffffffffffffffffffffffffffffffffffffffff1916908160001a905350600a85611fae91906139a3565b9450611f06565b8093505050505b919050565b600081604051602001611fd49190613275565b6040516020818303038152906040528051906020012060001c9050919050565b611fff848484611a40565b61200b84848484612435565b61204a576040517f08c379a000000000000000000000000000000000000000000000000000000000815260040161204190613513565b60405180910390fd5b50505050565b606060405180602001604052806000815250905090565b606061207282611835565b6120b1576040517f08c379a00000000000000000000000000000000000000000000000000000000081526004016120a8906136d3565b60405180910390fd5b60006120bb612050565b905060008151116120db5760405180602001604052806000815250612106565b806120e584611e14565b6040516020016120f692919061328c565b6040516020818303038152906040525b915050919050565b600081600001549050919050565b606060008251141561213f576040518060200160405280600081525090506122b6565b600060405180606001604052806040815260200161448a604091399050600060036002855161216e919061394d565b61217891906139a3565b600461218491906139d4565b90506000602082612195919061394d565b67ffffffffffffffff8111156121d4577f4e487b7100000000000000000000000000000000000000000000000000000000600052604160045260246000fd5b6040519080825280601f01601f1916602001820160405280156122065781602001600182028036833780820191505090505b509050818152600183018586518101602084015b81831015612275576003830192508251603f8160121c168501518253600182019150603f81600c1c168501518253600182019150603f8160061c168501518253600182019150603f811685015182536001820191505061221a565b60038951066001811461228f576002811461229f576122aa565b613d3d60f01b60028303526122aa565b603d60f81b60018303525b50505050508093505050505b919050565b6122d58282604051806020016040528060008152506125cc565b5050565b6122e282611835565b612321576040517f08c379a000000000000000000000000000000000000000000000000000000000815260040161231890613633565b60405180910390fd5b80600660008481526020019081526020016000209080519060200190612348929190612824565b505050565b6001816000016000828254019250508190555050565b6123fd83838360405160240161237b939291906134d5565b6040516020818303038152906040527fe3849f79000000000000000000000000000000000000000000000000000000007bffffffffffffffffffffffffffffffffffffffffffffffffffffffff19166020820180517bffffffffffffffffffffffffffffffffffffffffffffffffffffffff8381831617835250505050612402565b505050565b60008151905060006a636f6e736f6c652e6c6f679050602083016000808483855afa5050505050565b505050565b505050565b60006124568473ffffffffffffffffffffffffffffffffffffffff16612627565b156125bf578373ffffffffffffffffffffffffffffffffffffffff1663150b7a0261247f6118a1565b8786866040518563ffffffff1660e01b81526004016124a19493929190613408565b602060405180830381600087803b1580156124bb57600080fd5b505af19250505080156124ec57506040513d601f19601f820116820180604052508101906124e99190612ceb565b60015b61256f573d806000811461251c576040519150601f19603f3d011682016040523d82523d6000602084013e612521565b606091505b50600081511415612567576040517f08c379a000000000000000000000000000000000000000000000000000000000815260040161255e90613513565b60405180910390fd5b805181602001fd5b63150b7a0260e01b7bffffffffffffffffffffffffffffffffffffffffffffffffffffffff1916817bffffffffffffffffffffffffffffffffffffffffffffffffffffffff1916149150506125c4565b600190505b949350505050565b6125d6838361264a565b6125e36000848484612435565b612622576040517f08c379a000000000000000000000000000000000000000000000000000000000815260040161261990613513565b60405180910390fd5b505050565b6000808273ffffffffffffffffffffffffffffffffffffffff163b119050919050565b600073ffffffffffffffffffffffffffffffffffffffff168273ffffffffffffffffffffffffffffffffffffffff1614156126ba576040517f08c379a00000000000000000000000000000000000000000000000000000000081526004016126b190613653565b60405180910390fd5b6126c381611835565b15612703576040517f08c379a00000000000000000000000000000000000000000000000000000000081526004016126fa90613553565b60405180910390fd5b61270f6000838361242b565b6001600360008473ffffffffffffffffffffffffffffffffffffffff1673ffffffffffffffffffffffffffffffffffffffff168152602001908152602001600020600082825461275f919061394d565b92505081905550816002600083815260200190815260200160002060006101000a81548173ffffffffffffffffffffffffffffffffffffffff021916908373ffffffffffffffffffffffffffffffffffffffff160217905550808273ffffffffffffffffffffffffffffffffffffffff16600073ffffffffffffffffffffffffffffffffffffffff167fddf252ad1be2c89b69c2b068fc378daa952ba7f163c4a11628f55a4df523b3ef60405160405180910390a461282060008383612430565b5050565b82805461283090613b22565b90600052602060002090601f0160209004810192826128525760008555612899565b82601f1061286b57805160ff1916838001178555612899565b82800160010185558215612899579182015b8281111561289857825182559160200191906001019061287d565b5b5090506128a691906128aa565b5090565b5b808211156128c35760008160009055506001016128ab565b5090565b60006128da6128d5846137d3565b6137ae565b9050808382526020820190508260005b8581101561291a57813585016129008882612a5d565b8452602084019350602083019250506001810190506128ea565b5050509392505050565b6000612937612932846137ff565b6137ae565b90508281526020810184848401111561294f57600080fd5b61295a848285613ae0565b509392505050565b600061297561297084613830565b6137ae565b90508281526020810184848401111561298d57600080fd5b612998848285613ae0565b509392505050565b6000813590506129af816143f1565b92915050565b600082601f8301126129c657600080fd5b81356129d68482602086016128c7565b91505092915050565b6000813590506129ee81614408565b92915050565b600081359050612a038161441f565b92915050565b600081519050612a188161441f565b92915050565b600082601f830112612a2f57600080fd5b8135612a3f848260208601612924565b91505092915050565b600081359050612a5781614436565b92915050565b600082601f830112612a6e57600080fd5b8135612a7e848260208601612962565b91505092915050565b600081359050612a968161444d565b92915050565b600060208284031215612aae57600080fd5b6000612abc848285016129a0565b91505092915050565b60008060408385031215612ad857600080fd5b6000612ae6858286016129a0565b9250506020612af7858286016129a0565b9150509250929050565b600080600060608486031215612b1657600080fd5b6000612b24868287016129a0565b9350506020612b35868287016129a0565b9250506040612b4686828701612a87565b9150509250925092565b60008060008060808587031215612b6657600080fd5b6000612b74878288016129a0565b9450506020612b85878288016129a0565b9350506040612b9687828801612a87565b925050606085013567ffffffffffffffff811115612bb357600080fd5b612bbf87828801612a1e565b91505092959194509250565b60008060408385031215612bde57600080fd5b6000612bec858286016129a0565b9250506020612bfd858286016129df565b9150509250929050565b60008060408385031215612c1a57600080fd5b6000612c28858286016129a0565b9250506020612c3985828601612a87565b9150509250929050565b600080600060608486031215612c5857600080fd5b600084013567ffffffffffffffff811115612c7257600080fd5b612c7e868287016129b5565b935050602084013567ffffffffffffffff811115612c9b57600080fd5b612ca786828701612a5d565b9250506040612cb886828701612a87565b9150509250925092565b600060208284031215612cd457600080fd5b6000612ce2848285016129f4565b91505092915050565b600060208284031215612cfd57600080fd5b6000612d0b84828501612a09565b91505092915050565b600060208284031215612d2657600080fd5b6000612d3484828501612a48565b91505092915050565b600060208284031215612d4f57600080fd5b6000612d5d84828501612a87565b91505092915050565b612d6f81613a62565b82525050565b612d7e81613a74565b82525050565b6000612d8f82613876565b612d99818561388c565b9350612da9818560208601613aef565b612db281613cbb565b840191505092915050565b612dc681613aac565b82525050565b6000612dd782613881565b612de1818561389d565b9350612df1818560208601613aef565b612dfa81613cbb565b840191505092915050565b6000612e1082613881565b612e1a81856138ae565b9350612e2a818560208601613aef565b80840191505092915050565b60008154612e4381613b22565b612e4d81866138ae565b94506001821660008114612e685760018114612e7957612eac565b60ff19831686528186019350612eac565b612e8285613861565b60005b83811015612ea457815481890152600182019150602081019050612e85565b838801955050505b50505092915050565b6000612ec26025836138ae565b9150612ecd82613ccc565b602582019050919050565b6000612ee560328361389d565b9150612ef082613d1b565b604082019050919050565b6000612f0860258361389d565b9150612f1382613d6a565b604082019050919050565b6000612f2b601c8361389d565b9150612f3682613db9565b602082019050919050565b6000612f4e60248361389d565b9150612f5982613de2565b604082019050919050565b6000612f7160198361389d565b9150612f7c82613e31565b602082019050919050565b6000612f946063836138ae565b9150612f9f82613e5a565b606382019050919050565b6000612fb7602c8361389d565b9150612fc282613ef5565b604082019050919050565b6000612fda600d836138ae565b9150612fe582613f44565b600d82019050919050565b6000612ffd6001836138ae565b915061300882613f6d565b600182019050919050565b600061302060388361389d565b915061302b82613f96565b604082019050919050565b6000613043602a8361389d565b915061304e82613fe5565b604082019050919050565b600061306660298361389d565b915061307182614034565b604082019050919050565b6000613089602e8361389d565b915061309482614083565b604082019050919050565b60006130ac6002836138ae565b91506130b7826140d2565b600282019050919050565b60006130cf60208361389d565b91506130da826140fb565b602082019050919050565b60006130f260318361389d565b91506130fd82614124565b604082019050919050565b6000613115603d8361389d565b915061312082614173565b604082019050919050565b6000613138602c8361389d565b9150613143826141c2565b604082019050919050565b600061315b602f8361389d565b915061316682614211565b604082019050919050565b600061317e600a836138ae565b915061318982614260565b600a82019050919050565b60006131a160218361389d565b91506131ac82614289565b604082019050919050565b60006131c4601d836138ae565b91506131cf826142d8565b601d82019050919050565b60006131e760098361389d565b91506131f282614301565b602082019050919050565b600061320a60318361389d565b91506132158261432a565b604082019050919050565b600061322d60118361389d565b915061323882614379565b602082019050919050565b6000613250602a8361389d565b915061325b826143a2565b604082019050919050565b61326f81613ad6565b82525050565b60006132818284612e05565b915081905092915050565b60006132988285612e05565b91506132a48284612e05565b91508190509392505050565b60006132bc8285612e05565b91506132c782612ff0565b91506132d38284612e05565b91508190509392505050565b60006132eb8286612e05565b91506132f682612ff0565b91506133028285612e05565b915061330e8284612e05565b9150819050949350505050565b60006133278287612e36565b91506133338286612e05565b915061333f8285612e36565b915061334b8284612e05565b915061335682612fcd565b915081905095945050505050565b600061336f82612eb5565b915061337b8284612e05565b915081905092915050565b600061339182613171565b915061339d8285612e05565b91506133a882612f87565b91506133b48284612e05565b91506133bf8261309f565b91508190509392505050565b60006133d6826131b7565b91506133e28284612e05565b915081905092915050565b60006020820190506134026000830184612d66565b92915050565b600060808201905061341d6000830187612d66565b61342a6020830186612d66565b6134376040830185613266565b81810360608301526134498184612d84565b905095945050505050565b60006040820190506134696000830185612d66565b6134766020830184613266565b9392505050565b60006020820190506134926000830184612d75565b92915050565b60006020820190506134ad6000830184612dbd565b92915050565b600060208201905081810360008301526134cd8184612dcc565b905092915050565b600060608201905081810360008301526134ef8186612dcc565b90506134fe6020830185613266565b61350b6040830184612d66565b949350505050565b6000602082019050818103600083015261352c81612ed8565b9050919050565b6000602082019050818103600083015261354c81612efb565b9050919050565b6000602082019050818103600083015261356c81612f1e565b9050919050565b6000602082019050818103600083015261358c81612f41565b9050919050565b600060208201905081810360008301526135ac81612f64565b9050919050565b600060208201905081810360008301526135cc81612faa565b9050919050565b600060208201905081810360008301526135ec81613013565b9050919050565b6000602082019050818103600083015261360c81613036565b9050919050565b6000602082019050818103600083015261362c81613059565b9050919050565b6000602082019050818103600083015261364c8161307c565b9050919050565b6000602082019050818103600083015261366c816130c2565b9050919050565b6000602082019050818103600083015261368c816130e5565b9050919050565b600060208201905081810360008301526136ac81613108565b9050919050565b600060208201905081810360008301526136cc8161312b565b9050919050565b600060208201905081810360008301526136ec8161314e565b9050919050565b6000602082019050818103600083015261370c81613194565b9050919050565b6000602082019050818103600083015261372c816131da565b9050919050565b6000602082019050818103600083015261374c816131fd565b9050919050565b6000602082019050818103600083015261376c81613220565b9050919050565b6000602082019050818103600083015261378c81613243565b9050919050565b60006020820190506137a86000830184613266565b92915050565b60006137b86137c9565b90506137c48282613b54565b919050565b6000604051905090565b600067ffffffffffffffff8211156137ee576137ed613c8c565b5b602082029050602081019050919050565b600067ffffffffffffffff82111561381a57613819613c8c565b5b61382382613cbb565b9050602081019050919050565b600067ffffffffffffffff82111561384b5761384a613c8c565b5b61385482613cbb565b9050602081019050919050565b60008190508160005260206000209050919050565b600081519050919050565b600081519050919050565b600082825260208201905092915050565b600082825260208201905092915050565b600081905092915050565b60006138c482613aac565b91506138cf83613aac565b9250817f7fffffffffffffffffffffffffffffffffffffffffffffffffffffffffffffff0383136000831215161561390a57613909613bff565b5b817f800000000000000000000000000000000000000000000000000000000000000003831260008312161561394257613941613bff565b5b828201905092915050565b600061395882613ad6565b915061396383613ad6565b9250827fffffffffffffffffffffffffffffffffffffffffffffffffffffffffffffffff0382111561399857613997613bff565b5b828201905092915050565b60006139ae82613ad6565b91506139b983613ad6565b9250826139c9576139c8613c2e565b5b828204905092915050565b60006139df82613ad6565b91506139ea83613ad6565b9250817fffffffffffffffffffffffffffffffffffffffffffffffffffffffffffffffff0483118215151615613a2357613a22613bff565b5b828202905092915050565b6000613a3982613ad6565b9150613a4483613ad6565b925082821015613a5757613a56613bff565b5b828203905092915050565b6000613a6d82613ab6565b9050919050565b60008115159050919050565b60007fffffffff0000000000000000000000000000000000000000000000000000000082169050919050565b6000819050919050565b600073ffffffffffffffffffffffffffffffffffffffff82169050919050565b6000819050919050565b82818337600083830152505050565b60005b83811015613b0d578082015181840152602081019050613af2565b83811115613b1c576000848401525b50505050565b60006002820490506001821680613b3a57607f821691505b60208210811415613b4e57613b4d613c5d565b5b50919050565b613b5d82613cbb565b810181811067ffffffffffffffff82111715613b7c57613b7b613c8c565b5b80604052505050565b6000613b9082613ad6565b91507fffffffffffffffffffffffffffffffffffffffffffffffffffffffffffffffff821415613bc357613bc2613bff565b5b600182019050919050565b6000613bd982613ad6565b9150613be483613ad6565b925082613bf457613bf3613c2e565b5b828206905092915050565b7f4e487b7100000000000000000000000000000000000000000000000000000000600052601160045260246000fd5b7f4e487b7100000000000000000000000000000000000000000000000000000000600052601260045260246000fd5b7f4e487b7100000000000000000000000000000000000000000000000000000000600052602260045260246000fd5b7f4e487b7100000000000000000000000000000000000000000000000000000000600052604160045260246000fd5b6000601f19601f8301169050919050565b7f68747470733a2f2f6e6674707265766965772e30786465762e636f6465732f3f60008201527f636f64653d000000000000000000000000000000000000000000000000000000602082015250565b7f4552433732313a207472616e7366657220746f206e6f6e20455243373231526560008201527f63656976657220696d706c656d656e7465720000000000000000000000000000602082015250565b7f4552433732313a207472616e736665722066726f6d20696e636f72726563742060008201527f6f776e6572000000000000000000000000000000000000000000000000000000602082015250565b7f4552433732313a20746f6b656e20616c7265616479206d696e74656400000000600082015250565b7f4552433732313a207472616e7366657220746f20746865207a65726f2061646460008201527f7265737300000000000000000000000000000000000000000000000000000000602082015250565b7f4552433732313a20617070726f766520746f2063616c6c657200000000000000600082015250565b7f222c20226465736372697074696f6e223a20224120686967686c79206163636c60008201527f61696d656420636f6c6c656374696f6e206f6620737175617265732e222c202260208201527f696d616765223a2022646174613a696d6167652f7376672b786d6c3b6261736560408201527f36342c0000000000000000000000000000000000000000000000000000000000606082015250565b7f4552433732313a206f70657261746f7220717565727920666f72206e6f6e657860008201527f697374656e7420746f6b656e0000000000000000000000000000000000000000602082015250565b7f3c2f746578743e3c2f7376673e00000000000000000000000000000000000000600082015250565b7f2000000000000000000000000000000000000000000000000000000000000000600082015250565b7f4552433732313a20617070726f76652063616c6c6572206973206e6f74206f7760008201527f6e6572206e6f7220617070726f76656420666f7220616c6c0000000000000000602082015250565b7f4552433732313a2062616c616e636520717565727920666f7220746865207a6560008201527f726f206164647265737300000000000000000000000000000000000000000000602082015250565b7f4552433732313a206f776e657220717565727920666f72206e6f6e657869737460008201527f656e7420746f6b656e0000000000000000000000000000000000000000000000602082015250565b7f45524337323155524953746f726167653a2055524920736574206f66206e6f6e60008201527f6578697374656e7420746f6b656e000000000000000000000000000000000000602082015250565b7f227d000000000000000000000000000000000000000000000000000000000000600082015250565b7f4552433732313a206d696e7420746f20746865207a65726f2061646472657373600082015250565b7f45524337323155524953746f726167653a2055524920717565727920666f722060008201527f6e6f6e6578697374656e7420746f6b656e000000000000000000000000000000602082015250565b7f4e756d626572206e6565647320746f20626520686967686572207468616e207460008201527f68652063757272656e74206d6178206d696e746564206e756d6265722e000000602082015250565b7f4552433732313a20617070726f76656420717565727920666f72206e6f6e657860008201527f697374656e7420746f6b656e0000000000000000000000000000000000000000602082015250565b7f4552433732314d657461646174613a2055524920717565727920666f72206e6f60008201527f6e6578697374656e7420746f6b656e0000000000000000000000000000000000602082015250565b7f7b226e616d65223a202200000000000000000000000000000000000000000000600082015250565b7f4552433732313a20617070726f76616c20746f2063757272656e74206f776e6560008201527f7200000000000000000000000000000000000000000000000000000000000000602082015250565b7f646174613a6170706c69636174696f6e2f6a736f6e3b6261736536342c000000600082015250565b7f4e6f74206f776e65720000000000000000000000000000000000000000000000600082015250565b7f4552433732313a207472616e736665722063616c6c6572206973206e6f74206f60008201527f776e6572206e6f7220617070726f766564000000000000000000000000000000602082015250565b7f4e6f742076616c69642061646472657373000000000000000000000000000000600082015250565b7f54686520746f74616c206d696e74656420616d6f756e7420686173206265656e60008201527f2065786365656465642e00000000000000000000000000000000000000000000602082015250565b6143fa81613a62565b811461440557600080fd5b50565b61441181613a74565b811461441c57600080fd5b50565b61442881613a80565b811461443357600080fd5b50565b61443f81613aac565b811461444a57600080fd5b50565b61445681613ad6565b811461446157600080fd5b5056fe416e204e465420772f20494420257320686173206265656e206d696e74656420746f2025734142434445464748494a4b4c4d4e4f505152535455565758595a6162636465666768696a6b6c6d6e6f707172737475767778797a303132333435363738392b2fa264697066735822122023c03c03285ff912ba26aa974d2d0e622b7dfae43f1a22d3316b811d6738d7eb64736f6c634300080100333c73766720786d6c6e733d27687474703a2f2f7777772e77332e6f72672f323030302f73766727207072657365727665417370656374526174696f3d27784d696e594d696e206d656574272076696577426f783d273020302033353020333530273e3c7374796c653e2e62617365207b2066696c6c3a2077686974653b20666f6e742d66616d696c793a2073657269663b20666f6e742d73697a653a20323470783b207d3c2f7374796c653e3c726563742077696474683d273130302527206865696768743d2731303025272066696c6c3d27272f3e3c7465787420783d273530252720793d273530252720636c6173733d27626173652720646f6d696e616e742d626173656c696e653d276d6964646c652720746578742d616e63686f723d276d6964646c65273e",
  "linkReferences": {},
  "deployedLinkReferences": {}
}