{
  "_format": "hh-sol-artifact-1",
  "contractName": "MyEpicNFT",
  "sourceName": "contracts/MyEpicNFT.sol",
  "abi": [
    {
      "inputs": [],
      "stateMutability": "nonpayable",
      "type": "constructor"
    },
    {
      "anonymous": false,
      "inputs": [
        {
          "indexed": true,
          "internalType": "address",
          "name": "owner",
          "type": "address"
        },
        {
          "indexed": true,
          "internalType": "address",
          "name": "approved",
          "type": "address"
        },
        {
          "indexed": true,
          "internalType": "uint256",
          "name": "tokenId",
          "type": "uint256"
        }
      ],
      "name": "Approval",
      "type": "event"
    },
    {
      "anonymous": false,
      "inputs": [
        {
          "indexed": true,
          "internalType": "address",
          "name": "owner",
          "type": "address"
        },
        {
          "indexed": true,
          "internalType": "address",
          "name": "operator",
          "type": "address"
        },
        {
          "indexed": false,
          "internalType": "bool",
          "name": "approved",
          "type": "bool"
        }
      ],
      "name": "ApprovalForAll",
      "type": "event"
    },
    {
      "anonymous": false,
      "inputs": [
        {
          "indexed": false,
          "internalType": "address",
          "name": "sender",
          "type": "address"
        },
        {
          "indexed": false,
          "internalType": "uint256",
          "name": "tokenId",
          "type": "uint256"
        }
      ],
      "name": "NewEpicNFTMinted",
      "type": "event"
    },
    {
      "anonymous": false,
      "inputs": [
        {
          "indexed": true,
          "internalType": "address",
          "name": "from",
          "type": "address"
        },
        {
          "indexed": true,
          "internalType": "address",
          "name": "to",
          "type": "address"
        },
        {
          "indexed": true,
          "internalType": "uint256",
          "name": "tokenId",
          "type": "uint256"
        }
      ],
      "name": "Transfer",
      "type": "event"
    },
    {
      "inputs": [
        {
          "internalType": "address",
          "name": "to",
          "type": "address"
        },
        {
          "internalType": "uint256",
          "name": "tokenId",
          "type": "uint256"
        }
      ],
      "name": "approve",
      "outputs": [],
      "stateMutability": "nonpayable",
      "type": "function"
    },
    {
      "inputs": [
        {
          "internalType": "address",
          "name": "owner",
          "type": "address"
        }
      ],
      "name": "balanceOf",
      "outputs": [
        {
          "internalType": "uint256",
          "name": "",
          "type": "uint256"
        }
      ],
      "stateMutability": "view",
      "type": "function"
    },
    {
      "inputs": [
        {
          "internalType": "int256",
          "name": "_number",
          "type": "int256"
        }
      ],
      "name": "changeMaxMintedNumber",
      "outputs": [],
      "stateMutability": "nonpayable",
      "type": "function"
    },
    {
      "inputs": [
        {
          "internalType": "address",
          "name": "_newOwner",
          "type": "address"
        }
      ],
      "name": "changeOwner",
      "outputs": [],
      "stateMutability": "nonpayable",
      "type": "function"
    },
    {
      "inputs": [
        {
          "internalType": "uint256",
          "name": "tokenId",
          "type": "uint256"
        }
      ],
      "name": "getApproved",
      "outputs": [
        {
          "internalType": "address",
          "name": "",
          "type": "address"
        }
      ],
      "stateMutability": "view",
      "type": "function"
    },
    {
      "inputs": [],
      "name": "getMintedNumber",
      "outputs": [
        {
          "internalType": "int256",
          "name": "",
          "type": "int256"
        }
      ],
      "stateMutability": "view",
      "type": "function"
    },
    {
      "inputs": [],
      "name": "getTotalMaxMintedNumber",
      "outputs": [
        {
          "internalType": "int256",
          "name": "",
          "type": "int256"
        }
      ],
      "stateMutability": "view",
      "type": "function"
    },
    {
      "inputs": [
        {
          "internalType": "address",
          "name": "owner",
          "type": "address"
        },
        {
          "internalType": "address",
          "name": "operator",
          "type": "address"
        }
      ],
      "name": "isApprovedForAll",
      "outputs": [
        {
          "internalType": "bool",
          "name": "",
          "type": "bool"
        }
      ],
      "stateMutability": "view",
      "type": "function"
    },
    {
      "inputs": [],
      "name": "makeAnEpicNFT",
      "outputs": [],
      "stateMutability": "nonpayable",
      "type": "function"
    },
    {
      "inputs": [],
      "name": "maxMintedNumber",
      "outputs": [
        {
          "internalType": "int256",
          "name": "",
          "type": "int256"
        }
      ],
      "stateMutability": "view",
      "type": "function"
    },
    {
      "inputs": [],
      "name": "mintedNumber",
      "outputs": [
        {
          "internalType": "int256",
          "name": "",
          "type": "int256"
        }
      ],
      "stateMutability": "view",
      "type": "function"
    },
    {
      "inputs": [],
      "name": "name",
      "outputs": [
        {
          "internalType": "string",
          "name": "",
          "type": "string"
        }
      ],
      "stateMutability": "view",
      "type": "function"
    },
    {
      "inputs": [],
      "name": "owner",
      "outputs": [
        {
          "internalType": "address",
          "name": "",
          "type": "address"
        }
      ],
      "stateMutability": "view",
      "type": "function"
    },
    {
      "inputs": [
        {
          "internalType": "uint256",
          "name": "tokenId",
          "type": "uint256"
        }
      ],
      "name": "ownerOf",
      "outputs": [
        {
          "internalType": "address",
          "name": "",
          "type": "address"
        }
      ],
      "stateMutability": "view",
      "type": "function"
    },
    {
      "inputs": [
        {
          "internalType": "uint256",
          "name": "_tokenId",
          "type": "uint256"
        }
      ],
      "name": "pickRandomColor",
      "outputs": [
        {
          "internalType": "string",
          "name": "",
          "type": "string"
        }
      ],
      "stateMutability": "view",
      "type": "function"
    },
    {
      "inputs": [
        {
          "internalType": "uint256",
          "name": "_tokenId",
          "type": "uint256"
        }
      ],
      "name": "pickRandomFirstWord",
      "outputs": [
        {
          "internalType": "string",
          "name": "",
          "type": "string"
        }
      ],
      "stateMutability": "view",
      "type": "function"
    },
    {
      "inputs": [
        {
          "internalType": "uint256",
          "name": "_tokenId",
          "type": "uint256"
        }
      ],
      "name": "pickRandomSecondWord",
      "outputs": [
        {
          "internalType": "string",
          "name": "",
          "type": "string"
        }
      ],
      "stateMutability": "view",
      "type": "function"
    },
    {
      "inputs": [
        {
          "internalType": "uint256",
          "name": "_tokenId",
          "type": "uint256"
        }
      ],
      "name": "pickRandomThirdWord",
      "outputs": [
        {
          "internalType": "string",
          "name": "",
          "type": "string"
        }
      ],
      "stateMutability": "view",
      "type": "function"
    },
    {
      "inputs": [
        {
          "internalType": "string[]",
          "name": "_items",
          "type": "string[]"
        },
        {
          "internalType": "string",
          "name": "_word",
          "type": "string"
        },
        {
          "internalType": "uint256",
          "name": "_tokenId",
          "type": "uint256"
        }
      ],
      "name": "randomItems",
      "outputs": [
        {
          "internalType": "string",
          "name": "",
          "type": "string"
        }
      ],
      "stateMutability": "pure",
      "type": "function"
    },
    {
      "inputs": [
        {
          "internalType": "address",
          "name": "from",
          "type": "address"
        },
        {
          "internalType": "address",
          "name": "to",
          "type": "address"
        },
        {
          "internalType": "uint256",
          "name": "tokenId",
          "type": "uint256"
        }
      ],
      "name": "safeTransferFrom",
      "outputs": [],
      "stateMutability": "nonpayable",
      "type": "function"
    },
    {
      "inputs": [
        {
          "internalType": "address",
          "name": "from",
          "type": "address"
        },
        {
          "internalType": "address",
          "name": "to",
          "type": "address"
        },
        {
          "internalType": "uint256",
          "name": "tokenId",
          "type": "uint256"
        },
        {
          "internalType": "bytes",
          "name": "_data",
          "type": "bytes"
        }
      ],
      "name": "safeTransferFrom",
      "outputs": [],
      "stateMutability": "nonpayable",
      "type": "function"
    },
    {
      "inputs": [
        {
          "internalType": "address",
          "name": "operator",
          "type": "address"
        },
        {
          "internalType": "bool",
          "name": "approved",
          "type": "bool"
        }
      ],
      "name": "setApprovalForAll",
      "outputs": [],
      "stateMutability": "nonpayable",
      "type": "function"
    },
    {
      "inputs": [
        {
          "internalType": "bytes4",
          "name": "interfaceId",
          "type": "bytes4"
        }
      ],
      "name": "supportsInterface",
      "outputs": [
        {
          "internalType": "bool",
          "name": "",
          "type": "bool"
        }
      ],
      "stateMutability": "view",
      "type": "function"
    },
    {
      "inputs": [],
      "name": "symbol",
      "outputs": [
        {
          "internalType": "string",
          "name": "",
          "type": "string"
        }
      ],
      "stateMutability": "view",
      "type": "function"
    },
    {
      "inputs": [
        {
          "internalType": "uint256",
          "name": "tokenId",
          "type": "uint256"
        }
      ],
      "name": "tokenURI",
      "outputs": [
        {
          "internalType": "string",
          "name": "",
          "type": "string"
        }
      ],
      "stateMutability": "view",
      "type": "function"
    },
    {
      "inputs": [
        {
          "internalType": "address",
          "name": "from",
          "type": "address"
        },
        {
          "internalType": "address",
          "name": "to",
          "type": "address"
        },
        {
          "internalType": "uint256",
          "name": "tokenId",
          "type": "uint256"
        }
      ],
      "name": "transferFrom",
      "outputs": [],
      "stateMutability": "nonpayable",
      "type": "function"
    }
  ],
  "bytecode": "0x608060405260405180610100016040528060d381526020016200639a60d39139600890805190602001906200003692919062001b61565b506040518060800160405280605681526020016200646d60569139600990805190602001906200006892919062001b61565b506040518061024001604052806040518060400160405280600781526020017f4a6972616979610000000000000000000000000000000000000000000000000081525081526020016040518060400160405280600681526020017f4e617275746f000000000000000000000000000000000000000000000000000081525081526020016040518060400160405280600681526020017f48696e617461000000000000000000000000000000000000000000000000000081525081526020016040518060400160405280600681526020017f536173756b65000000000000000000000000000000000000000000000000000081525081526020016040518060400160405280600781526020017f53616974616d610000000000000000000000000000000000000000000000000081525081526020016040518060400160405280600481526020017f476f6b750000000000000000000000000000000000000000000000000000000081525081526020016040518060400160405280600b81526020017f53756e67204a696e776f6f00000000000000000000000000000000000000000081525081526020016040518060400160405280600481526020017f4572656e0000000000000000000000000000000000000000000000000000000081525081526020016040518060400160405280600781526020017f4b616b617368690000000000000000000000000000000000000000000000000081525081526020016040518060400160405280600681526020017f4261746d616e000000000000000000000000000000000000000000000000000081525081526020016040518060400160405280600781526020017f49726f6e6d616e0000000000000000000000000000000000000000000000000081525081526020016040518060400160405280600581526020017f546f62657900000000000000000000000000000000000000000000000000000081525081526020016040518060400160405280600681526020017f446176696f6e000000000000000000000000000000000000000000000000000081525081526020016040518060400160405280600681526020017f4d696e61746f000000000000000000000000000000000000000000000000000081525081526020016040518060400160405280600681526020017f4d696b617361000000000000000000000000000000000000000000000000000081525081526020016040518060400160405280600881526020017f526f636b204c656500000000000000000000000000000000000000000000000081525081526020016040518060400160405280600381526020017f4a6f6e000000000000000000000000000000000000000000000000000000000081525081526020016040518060400160405280600681526020017f4d6972616e610000000000000000000000000000000000000000000000000000815250815250600a906012620004ab92919062001bf2565b506040518061028001604052806040518060400160405280600181526020017f310000000000000000000000000000000000000000000000000000000000000081525081526020016040518060400160405280600181526020017f320000000000000000000000000000000000000000000000000000000000000081525081526020016040518060400160405280600181526020017f330000000000000000000000000000000000000000000000000000000000000081525081526020016040518060400160405280600181526020017f340000000000000000000000000000000000000000000000000000000000000081525081526020016040518060400160405280600181526020017f350000000000000000000000000000000000000000000000000000000000000081525081526020016040518060400160405280600181526020017f360000000000000000000000000000000000000000000000000000000000000081525081526020016040518060400160405280600181526020017f370000000000000000000000000000000000000000000000000000000000000081525081526020016040518060400160405280600181526020017f380000000000000000000000000000000000000000000000000000000000000081525081526020016040518060400160405280600181526020017f390000000000000000000000000000000000000000000000000000000000000081525081526020016040518060400160405280600281526020017f313000000000000000000000000000000000000000000000000000000000000081525081526020016040518060400160405280600281526020017f313100000000000000000000000000000000000000000000000000000000000081525081526020016040518060400160405280600281526020017f313200000000000000000000000000000000000000000000000000000000000081525081526020016040518060400160405280600281526020017f313300000000000000000000000000000000000000000000000000000000000081525081526020016040518060400160405280600281526020017f313400000000000000000000000000000000000000000000000000000000000081525081526020016040518060400160405280600281526020017f313500000000000000000000000000000000000000000000000000000000000081525081526020016040518060400160405280600281526020017f313600000000000000000000000000000000000000000000000000000000000081525081526020016040518060400160405280600281526020017f313700000000000000000000000000000000000000000000000000000000000081525081526020016040518060400160405280600281526020017f313800000000000000000000000000000000000000000000000000000000000081525081526020016040518060400160405280600281526020017f313900000000000000000000000000000000000000000000000000000000000081525081526020016040518060400160405280600281526020017f3230000000000000000000000000000000000000000000000000000000000000815250815250600b9060146200096492919062001c59565b506040518061024001604052806040518060400160405280600181526020017f610000000000000000000000000000000000000000000000000000000000000081525081526020016040518060400160405280600181526020017f620000000000000000000000000000000000000000000000000000000000000081525081526020016040518060400160405280600181526020017f630000000000000000000000000000000000000000000000000000000000000081525081526020016040518060400160405280600181526020017f640000000000000000000000000000000000000000000000000000000000000081525081526020016040518060400160405280600181526020017f650000000000000000000000000000000000000000000000000000000000000081525081526020016040518060400160405280600181526020017f660000000000000000000000000000000000000000000000000000000000000081525081526020016040518060400160405280600181526020017f670000000000000000000000000000000000000000000000000000000000000081525081526020016040518060400160405280600181526020017f680000000000000000000000000000000000000000000000000000000000000081525081526020016040518060400160405280600181526020017f690000000000000000000000000000000000000000000000000000000000000081525081526020016040518060400160405280600181526020017f6a0000000000000000000000000000000000000000000000000000000000000081525081526020016040518060400160405280600181526020017f6b0000000000000000000000000000000000000000000000000000000000000081525081526020016040518060400160405280600181526020017f6c0000000000000000000000000000000000000000000000000000000000000081525081526020016040518060400160405280600181526020017f6d0000000000000000000000000000000000000000000000000000000000000081525081526020016040518060400160405280600181526020017f6e0000000000000000000000000000000000000000000000000000000000000081525081526020016040518060400160405280600181526020017f6f0000000000000000000000000000000000000000000000000000000000000081525081526020016040518060400160405280600181526020017f700000000000000000000000000000000000000000000000000000000000000081525081526020016040518060400160405280600181526020017f710000000000000000000000000000000000000000000000000000000000000081525081526020016040518060400160405280600181526020017f7200000000000000000000000000000000000000000000000000000000000000815250815250600c90601262000da792919062001bf2565b506040518061064001604052806040518060400160405280600781526020017f234646363633330000000000000000000000000000000000000000000000000081525081526020016040518060400160405280600781526020017f234646423339390000000000000000000000000000000000000000000000000081525081526020016040518060400160405280600781526020017f234646333346460000000000000000000000000000000000000000000000000081525081526020016040518060400160405280600781526020017f234646464639390000000000000000000000000000000000000000000000000081525081526020016040518060400160405280600781526020017f233030423345360000000000000000000000000000000000000000000000000081525081526020016040518060400160405280600781526020017f234536423333330000000000000000000000000000000000000000000000000081525081526020016040518060400160405280600781526020017f233333363645360000000000000000000000000000000000000000000000000081525081526020016040518060400160405280600781526020017f233939393936360000000000000000000000000000000000000000000000000081525081526020016040518060400160405280600781526020017f233939464639390000000000000000000000000000000000000000000000000081525081526020016040518060400160405280600781526020017f234233344434440000000000000000000000000000000000000000000000000081525081526020016040518060400160405280600781526020017f233830423330300000000000000000000000000000000000000000000000000081525081526020016040518060400160405280600781526020017f233830393930300000000000000000000000000000000000000000000000000081525081526020016040518060400160405280600781526020017f234536423342330000000000000000000000000000000000000000000000000081525081526020016040518060400160405280600781526020017f233636383042330000000000000000000000000000000000000000000000000081525081526020016040518060400160405280600781526020017f233636393931410000000000000000000000000000000000000000000000000081525081526020016040518060400160405280600781526020017f234646393945360000000000000000000000000000000000000000000000000081525081526020016040518060400160405280600781526020017f234343464631410000000000000000000000000000000000000000000000000081525081526020016040518060400160405280600781526020017f234646314136360000000000000000000000000000000000000000000000000081525081526020016040518060400160405280600781526020017f234536333331410000000000000000000000000000000000000000000000000081525081526020016040518060400160405280600781526020017f233333464643430000000000000000000000000000000000000000000000000081525081526020016040518060400160405280600781526020017f233636393934440000000000000000000000000000000000000000000000000081525081526020016040518060400160405280600781526020017f234233363643430000000000000000000000000000000000000000000000000081525081526020016040518060400160405280600781526020017f233444383030300000000000000000000000000000000000000000000000000081525081526020016040518060400160405280600781526020017f234233333330300000000000000000000000000000000000000000000000000081525081526020016040518060400160405280600781526020017f234343383043430000000000000000000000000000000000000000000000000081525081526020016040518060400160405280600781526020017f233636363634440000000000000000000000000000000000000000000000000081525081526020016040518060400160405280600781526020017f233939314146460000000000000000000000000000000000000000000000000081525081526020016040518060400160405280600781526020017f234536363646460000000000000000000000000000000000000000000000000081525081526020016040518060400160405280600781526020017f233444423346460000000000000000000000000000000000000000000000000081525081526020016040518060400160405280600781526020017f233141423339390000000000000000000000000000000000000000000000000081525081526020016040518060400160405280600781526020017f234536363642330000000000000000000000000000000000000000000000000081525081526020016040518060400160405280600781526020017f233333393931410000000000000000000000000000000000000000000000000081525081526020016040518060400160405280600781526020017f234343393939390000000000000000000000000000000000000000000000000081525081526020016040518060400160405280600781526020017f234233423331410000000000000000000000000000000000000000000000000081525081526020016040518060400160405280600781526020017f233030453638300000000000000000000000000000000000000000000000000081525081526020016040518060400160405280600781526020017f233444383036360000000000000000000000000000000000000000000000000081525081526020016040518060400160405280600781526020017f233830393938300000000000000000000000000000000000000000000000000081525081526020016040518060400160405280600781526020017f234536464638300000000000000000000000000000000000000000000000000081525081526020016040518060400160405280600781526020017f233141464633330000000000000000000000000000000000000000000000000081525081526020016040518060400160405280600781526020017f233939393933330000000000000000000000000000000000000000000000000081525081526020016040518060400160405280600781526020017f234646333338300000000000000000000000000000000000000000000000000081525081526020016040518060400160405280600781526020017f234343434330300000000000000000000000000000000000000000000000000081525081526020016040518060400160405280600781526020017f233636453634440000000000000000000000000000000000000000000000000081525081526020016040518060400160405280600781526020017f233444383043430000000000000000000000000000000000000000000000000081525081526020016040518060400160405280600781526020017f233939303042330000000000000000000000000000000000000000000000000081525081526020016040518060400160405280600781526020017f234536344436360000000000000000000000000000000000000000000000000081525081526020016040518060400160405280600781526020017f233444423338300000000000000000000000000000000000000000000000000081525081526020016040518060400160405280600781526020017f234646344434440000000000000000000000000000000000000000000000000081525081526020016040518060400160405280600781526020017f233939453645360000000000000000000000000000000000000000000000000081525081526020016040518060400160405280600781526020017f2336363636464600000000000000000000000000000000000000000000000000815250815250600d9060326200194a92919062001cc0565b506000600e556032600f553480156200196257600080fd5b506040518060400160405280600981526020017f5371756172654e465400000000000000000000000000000000000000000000008152506040518060400160405280600681526020017f53515541524500000000000000000000000000000000000000000000000000008152508160009080519060200190620019e792919062001b61565b50806001908051906020019062001a0092919062001b61565b50505062001a4e6040518060400160405280601e81526020017f54686973206973206d79204e465420636f6e74726163742e20576f616821000081525062001a9560201b6200170b1760201c565b33601060006101000a81548173ffffffffffffffffffffffffffffffffffffffff021916908373ffffffffffffffffffffffffffffffffffffffff16021790555062001ee1565b62001b358160405160240162001aac919062001df5565b6040516020818303038152906040527f41304fac000000000000000000000000000000000000000000000000000000007bffffffffffffffffffffffffffffffffffffffffffffffffffffffff19166020820180517bffffffffffffffffffffffffffffffffffffffffffffffffffffffff838183161783525050505062001b3860201b60201c565b50565b60008151905060006a636f6e736f6c652e6c6f679050602083016000808483855afa5050505050565b82805462001b6f9062001e6b565b90600052602060002090601f01602090048101928262001b93576000855562001bdf565b82601f1062001bae57805160ff191683800117855562001bdf565b8280016001018555821562001bdf579182015b8281111562001bde57825182559160200191906001019062001bc1565b5b50905062001bee919062001d27565b5090565b82805482825590600052602060002090810192821562001c46579160200282015b8281111562001c4557825182908051906020019062001c3492919062001b61565b509160200191906001019062001c13565b5b50905062001c55919062001d46565b5090565b82805482825590600052602060002090810192821562001cad579160200282015b8281111562001cac57825182908051906020019062001c9b92919062001b61565b509160200191906001019062001c7a565b5b50905062001cbc919062001d46565b5090565b82805482825590600052602060002090810192821562001d14579160200282015b8281111562001d1357825182908051906020019062001d0292919062001b61565b509160200191906001019062001ce1565b5b50905062001d23919062001d46565b5090565b5b8082111562001d4257600081600090555060010162001d28565b5090565b5b8082111562001d6a576000818162001d60919062001d6e565b5060010162001d47565b5090565b50805462001d7c9062001e6b565b6000825580601f1062001d90575062001db1565b601f01602090049060005260206000209081019062001db0919062001d27565b5b50565b600062001dc18262001e19565b62001dcd818562001e24565b935062001ddf81856020860162001e35565b62001dea8162001ed0565b840191505092915050565b6000602082019050818103600083015262001e11818462001db4565b905092915050565b600081519050919050565b600082825260208201905092915050565b60005b8381101562001e5557808201518184015260208101905062001e38565b8381111562001e65576000848401525b50505050565b6000600282049050600182168062001e8457607f821691505b6020821081141562001e9b5762001e9a62001ea1565b5b50919050565b7f4e487b7100000000000000000000000000000000000000000000000000000000600052602260045260246000fd5b6000601f19601f8301169050919050565b6144a98062001ef16000396000f3fe608060405234801561001057600080fd5b506004361061018e5760003560e01c80639a0896af116100de578063b7b26af811610097578063c87b56dd11610071578063c87b56dd146104bb578063d4fa440f146104eb578063de9d132f14610509578063e985e9c5146105135761018e565b8063b7b26af81461043f578063b88d4fde1461046f578063c575757a1461048b5761018e565b80639a0896af1461037d578063a22cb4651461039b578063a6f9dae1146103b7578063afe45e0b146103d3578063b09adbfc146103f1578063b187301f1461040f5761018e565b806342842e0e1161014b5780636352211e116101255780636352211e146102e157806370a08231146103115780638da5cb5b1461034157806395d89b411461035f5761018e565b806342842e0e14610279578063514dc8c61461029557806351d25877146102c55761018e565b806301ffc9a71461019357806306fdde03146101c3578063081812fc146101e1578063095ea7b31461021157806323b872dd1461022d5780632de38d6814610249575b600080fd5b6101ad60048036038101906101a89190612c9b565b610543565b6040516101ba9190613427565b60405180910390f35b6101cb610625565b6040516101d8919061345d565b60405180910390f35b6101fb60048036038101906101f69190612d16565b6106b7565b6040516102089190613397565b60405180910390f35b61022b60048036038101906102269190612be0565b61073c565b005b61024760048036038101906102429190612ada565b610854565b005b610263600480360381019061025e9190612d16565b6108b4565b604051610270919061345d565b60405180910390f35b610293600480360381019061028e9190612ada565b6109ce565b005b6102af60048036038101906102aa9190612d16565b6109ee565b6040516102bc919061345d565b60405180910390f35b6102df60048036038101906102da9190612ced565b610b08565b005b6102fb60048036038101906102f69190612d16565b610be6565b6040516103089190613397565b60405180910390f35b61032b60048036038101906103269190612a75565b610c98565b604051610338919061373d565b60405180910390f35b610349610d50565b6040516103569190613397565b60405180910390f35b610367610d76565b604051610374919061345d565b60405180910390f35b610385610e08565b6040516103929190613442565b60405180910390f35b6103b560048036038101906103b09190612ba4565b610e0e565b005b6103d160048036038101906103cc9190612a75565b610e24565b005b6103db610f6a565b6040516103e89190613442565b60405180910390f35b6103f9610f74565b6040516104069190613442565b60405180910390f35b61042960048036038101906104249190612d16565b610f7e565b604051610436919061345d565b60405180910390f35b61045960048036038101906104549190612c1c565b611098565b604051610466919061345d565b60405180910390f35b61048960048036038101906104849190612b29565b61112a565b005b6104a560048036038101906104a09190612d16565b61118c565b6040516104b2919061345d565b60405180910390f35b6104d560048036038101906104d09190612d16565b6112a6565b6040516104e2919061345d565b60405180910390f35b6104f36113f8565b6040516105009190613442565b60405180910390f35b6105116113fe565b005b61052d60048036038101906105289190612a9e565b611677565b60405161053a9190613427565b60405180910390f35b60007f80ac58cd000000000000000000000000000000000000000000000000000000007bffffffffffffffffffffffffffffffffffffffffffffffffffffffff1916827bffffffffffffffffffffffffffffffffffffffffffffffffffffffff1916148061060e57507f5b5e139f000000000000000000000000000000000000000000000000000000007bffffffffffffffffffffffffffffffffffffffffffffffffffffffff1916827bffffffffffffffffffffffffffffffffffffffffffffffffffffffff1916145b8061061e575061061d826117a4565b5b9050919050565b60606000805461063490613acc565b80601f016020809104026020016040519081016040528092919081815260200182805461066090613acc565b80156106ad5780601f10610682576101008083540402835291602001916106ad565b820191906000526020600020905b81548152906001019060200180831161069057829003601f168201915b5050505050905090565b60006106c28261180e565b610701576040517f08c379a00000000000000000000000000000000000000000000000000000000081526004016106f89061365d565b60405180910390fd5b6004600083815260200190815260200160002060009054906101000a900473ffffffffffffffffffffffffffffffffffffffff169050919050565b600061074782610be6565b90508073ffffffffffffffffffffffffffffffffffffffff168373ffffffffffffffffffffffffffffffffffffffff1614156107b8576040517f08c379a00000000000000000000000000000000000000000000000000000000081526004016107af9061369d565b60405180910390fd5b8073ffffffffffffffffffffffffffffffffffffffff166107d761187a565b73ffffffffffffffffffffffffffffffffffffffff16148061080657506108058161080061187a565b611677565b5b610845576040517f08c379a000000000000000000000000000000000000000000000000000000000815260040161083c9061357d565b60405180910390fd5b61084f8383611882565b505050565b61086561085f61187a565b8261193b565b6108a4576040517f08c379a000000000000000000000000000000000000000000000000000000000815260040161089b906136dd565b60405180910390fd5b6108af838383611a19565b505050565b60606109c7600a805480602002602001604051908101604052809291908181526020016000905b828210156109875783829060005260206000200180546108fa90613acc565b80601f016020809104026020016040519081016040528092919081815260200182805461092690613acc565b80156109735780601f1061094857610100808354040283529160200191610973565b820191906000526020600020905b81548152906001019060200180831161095657829003601f168201915b5050505050815260200190600101906108db565b505050506040518060400160405280600a81526020017f46495253545f574f52440000000000000000000000000000000000000000000081525084611098565b9050919050565b6109e98383836040518060200160405280600081525061112a565b505050565b6060610b01600d805480602002602001604051908101604052809291908181526020016000905b82821015610ac1578382906000526020600020018054610a3490613acc565b80601f0160208091040260200160405190810160405280929190818152602001828054610a6090613acc565b8015610aad5780601f10610a8257610100808354040283529160200191610aad565b820191906000526020600020905b815481529060010190602001808311610a9057829003601f168201915b505050505081526020019060010190610a15565b505050506040518060400160405280600581526020017f434f4c4f5200000000000000000000000000000000000000000000000000000081525084611098565b9050919050565b601060009054906101000a900473ffffffffffffffffffffffffffffffffffffffff1673ffffffffffffffffffffffffffffffffffffffff163373ffffffffffffffffffffffffffffffffffffffff1614610b98576040517f08c379a0000000000000000000000000000000000000000000000000000000008152600401610b8f906136bd565b60405180910390fd5b600f548113610bdc576040517f08c379a0000000000000000000000000000000000000000000000000000000008152600401610bd39061363d565b60405180910390fd5b80600f8190555050565b6000806002600084815260200190815260200160002060009054906101000a900473ffffffffffffffffffffffffffffffffffffffff169050600073ffffffffffffffffffffffffffffffffffffffff168173ffffffffffffffffffffffffffffffffffffffff161415610c8f576040517f08c379a0000000000000000000000000000000000000000000000000000000008152600401610c86906135bd565b60405180910390fd5b80915050919050565b60008073ffffffffffffffffffffffffffffffffffffffff168273ffffffffffffffffffffffffffffffffffffffff161415610d09576040517f08c379a0000000000000000000000000000000000000000000000000000000008152600401610d009061359d565b60405180910390fd5b600360008373ffffffffffffffffffffffffffffffffffffffff1673ffffffffffffffffffffffffffffffffffffffff168152602001908152602001600020549050919050565b601060009054906101000a900473ffffffffffffffffffffffffffffffffffffffff1681565b606060018054610d8590613acc565b80601f0160208091040260200160405190810160405280929190818152602001828054610db190613acc565b8015610dfe5780601f10610dd357610100808354040283529160200191610dfe565b820191906000526020600020905b815481529060010190602001808311610de157829003601f168201915b5050505050905090565b600f5481565b610e20610e1961187a565b8383611c80565b5050565b601060009054906101000a900473ffffffffffffffffffffffffffffffffffffffff1673ffffffffffffffffffffffffffffffffffffffff163373ffffffffffffffffffffffffffffffffffffffff1614610eb4576040517f08c379a0000000000000000000000000000000000000000000000000000000008152600401610eab906136bd565b60405180910390fd5b80600073ffffffffffffffffffffffffffffffffffffffff168173ffffffffffffffffffffffffffffffffffffffff161415610f25576040517f08c379a0000000000000000000000000000000000000000000000000000000008152600401610f1c906136fd565b60405180910390fd5b81601060006101000a81548173ffffffffffffffffffffffffffffffffffffffff021916908373ffffffffffffffffffffffffffffffffffffffff1602179055505050565b6000600f54905090565b6000600e54905090565b6060611091600b805480602002602001604051908101604052809291908181526020016000905b82821015611051578382906000526020600020018054610fc490613acc565b80601f0160208091040260200160405190810160405280929190818152602001828054610ff090613acc565b801561103d5780601f106110125761010080835404028352916020019161103d565b820191906000526020600020905b81548152906001019060200180831161102057829003601f168201915b505050505081526020019060010190610fa5565b505050506040518060400160405280600b81526020017f5345434f4e445f574f524400000000000000000000000000000000000000000081525084611098565b9050919050565b606060006110ce846110a985611ded565b6040516020016110ba929190613265565b604051602081830303815290604052611f9a565b90508451816110dd9190613b78565b9050848181518110611118577f4e487b7100000000000000000000000000000000000000000000000000000000600052603260045260246000fd5b60200260200101519150509392505050565b61113b61113561187a565b8361193b565b61117a576040517f08c379a0000000000000000000000000000000000000000000000000000000008152600401611171906136dd565b60405180910390fd5b61118684848484611fcd565b50505050565b606061129f600c805480602002602001604051908101604052809291908181526020016000905b8282101561125f5783829060005260206000200180546111d290613acc565b80601f01602080910402602001604051908101604052809291908181526020018280546111fe90613acc565b801561124b5780601f106112205761010080835404028352916020019161124b565b820191906000526020600020905b81548152906001019060200180831161122e57829003601f168201915b5050505050815260200190600101906111b3565b505050506040518060400160405280600a81526020017f54484952445f574f52440000000000000000000000000000000000000000000081525084611098565b9050919050565b60606112b18261180e565b6112f0576040517f08c379a00000000000000000000000000000000000000000000000000000000081526004016112e79061361d565b60405180910390fd5b600060066000848152602001908152602001600020805461131090613acc565b80601f016020809104026020016040519081016040528092919081815260200182805461133c90613acc565b80156113895780601f1061135e57610100808354040283529160200191611389565b820191906000526020600020905b81548152906001019060200180831161136c57829003601f168201915b50505050509050600061139a612029565b90506000815114156113b05781925050506113f3565b6000825111156113e55780826040516020016113cd929190613265565b604051602081830303815290604052925050506113f3565b6113ee84612040565b925050505b919050565b600e5481565b600f54600e5412611444576040517f08c379a000000000000000000000000000000000000000000000000000000000815260040161143b9061371d565b60405180910390fd5b600061145060076120e7565b9050600061145d826108b4565b9050600061146a83610f7e565b905060006114778461118c565b9050600083838360405160200161149093929190613289565b604051602081830303815290604052905060006114ac866109ee565b905060006008826009856040516020016114c994939291906132c5565b6040516020818303038152906040529050600061150e846114e9846120f5565b6040516020016114fa929190613330565b6040516020818303038152906040526120f5565b90506000816040516020016115239190613375565b60405160208183030381529060405290506115726040518060400160405280601581526020017f0a2d2d2d2d2d2d2d2d2d2d2d2d2d2d2d2d2d2d2d2d000000000000000000000081525061170b565b61159a81604051602001611586919061330e565b60405160208183030381529060405261170b565b6115d86040518060400160405280601581526020017f2d2d2d2d2d2d2d2d2d2d2d2d2d2d2d2d2d2d2d2d0a000000000000000000000081525061170b565b6115e2338a612294565b6115ec89826122b2565b6115f66007612326565b6001600e60008282546116099190613863565b9250508190555061163360405180606001604052806025815260200161440f602591398a3361233c565b7febb98688741ffa4c7589bf325de30cf7becb63de567842e1ccdb6cb949fdc82c338a6040516116649291906133fe565b60405180910390a1505050505050505050565b6000600560008473ffffffffffffffffffffffffffffffffffffffff1673ffffffffffffffffffffffffffffffffffffffff16815260200190815260200160002060008373ffffffffffffffffffffffffffffffffffffffff1673ffffffffffffffffffffffffffffffffffffffff16815260200190815260200160002060009054906101000a900460ff16905092915050565b6117a18160405160240161171f919061345d565b6040516020818303038152906040527f41304fac000000000000000000000000000000000000000000000000000000007bffffffffffffffffffffffffffffffffffffffffffffffffffffffff19166020820180517bffffffffffffffffffffffffffffffffffffffffffffffffffffffff83818316178352505050506123db565b50565b60007f01ffc9a7000000000000000000000000000000000000000000000000000000007bffffffffffffffffffffffffffffffffffffffffffffffffffffffff1916827bffffffffffffffffffffffffffffffffffffffffffffffffffffffff1916149050919050565b60008073ffffffffffffffffffffffffffffffffffffffff166002600084815260200190815260200160002060009054906101000a900473ffffffffffffffffffffffffffffffffffffffff1673ffffffffffffffffffffffffffffffffffffffff1614159050919050565b600033905090565b816004600083815260200190815260200160002060006101000a81548173ffffffffffffffffffffffffffffffffffffffff021916908373ffffffffffffffffffffffffffffffffffffffff160217905550808273ffffffffffffffffffffffffffffffffffffffff166118f583610be6565b73ffffffffffffffffffffffffffffffffffffffff167f8c5be1e5ebec7d5bd14f71427d1e84f3dd0314c0f7b2291e5b200ac8c7c3b92560405160405180910390a45050565b60006119468261180e565b611985576040517f08c379a000000000000000000000000000000000000000000000000000000000815260040161197c9061355d565b60405180910390fd5b600061199083610be6565b90508073ffffffffffffffffffffffffffffffffffffffff168473ffffffffffffffffffffffffffffffffffffffff1614806119ff57508373ffffffffffffffffffffffffffffffffffffffff166119e7846106b7565b73ffffffffffffffffffffffffffffffffffffffff16145b80611a105750611a0f8185611677565b5b91505092915050565b8273ffffffffffffffffffffffffffffffffffffffff16611a3982610be6565b73ffffffffffffffffffffffffffffffffffffffff1614611a8f576040517f08c379a0000000000000000000000000000000000000000000000000000000008152600401611a86906134dd565b60405180910390fd5b600073ffffffffffffffffffffffffffffffffffffffff168273ffffffffffffffffffffffffffffffffffffffff161415611aff576040517f08c379a0000000000000000000000000000000000000000000000000000000008152600401611af69061351d565b60405180910390fd5b611b0a838383612404565b611b15600082611882565b6001600360008573ffffffffffffffffffffffffffffffffffffffff1673ffffffffffffffffffffffffffffffffffffffff1681526020019081526020016000206000828254611b6591906139d8565b925050819055506001600360008473ffffffffffffffffffffffffffffffffffffffff1673ffffffffffffffffffffffffffffffffffffffff1681526020019081526020016000206000828254611bbc91906138f7565b92505081905550816002600083815260200190815260200160002060006101000a81548173ffffffffffffffffffffffffffffffffffffffff021916908373ffffffffffffffffffffffffffffffffffffffff160217905550808273ffffffffffffffffffffffffffffffffffffffff168473ffffffffffffffffffffffffffffffffffffffff167fddf252ad1be2c89b69c2b068fc378daa952ba7f163c4a11628f55a4df523b3ef60405160405180910390a4611c7b838383612409565b505050565b8173ffffffffffffffffffffffffffffffffffffffff168373ffffffffffffffffffffffffffffffffffffffff161415611cef576040517f08c379a0000000000000000000000000000000000000000000000000000000008152600401611ce69061353d565b60405180910390fd5b80600560008573ffffffffffffffffffffffffffffffffffffffff1673ffffffffffffffffffffffffffffffffffffffff16815260200190815260200160002060008473ffffffffffffffffffffffffffffffffffffffff1673ffffffffffffffffffffffffffffffffffffffff16815260200190815260200160002060006101000a81548160ff0219169083151502179055508173ffffffffffffffffffffffffffffffffffffffff168373ffffffffffffffffffffffffffffffffffffffff167f17307eab39ab6107e8899845ad3d59bd9653f200f220920489ca2b5937696c3183604051611de09190613427565b60405180910390a3505050565b60606000821415611e35576040518060400160405280600181526020017f30000000000000000000000000000000000000000000000000000000000000008152509050611f95565b600082905060005b60008214611e67578080611e5090613b2f565b915050600a82611e60919061394d565b9150611e3d565b60008167ffffffffffffffff811115611ea9577f4e487b7100000000000000000000000000000000000000000000000000000000600052604160045260246000fd5b6040519080825280601f01601f191660200182016040528015611edb5781602001600182028036833780820191505090505b5090505b60008514611f8e57600182611ef491906139d8565b9150600a85611f039190613b78565b6030611f0f91906138f7565b60f81b818381518110611f4b577f4e487b7100000000000000000000000000000000000000000000000000000000600052603260045260246000fd5b60200101907effffffffffffffffffffffffffffffffffffffffffffffffffffffffffffff1916908160001a905350600a85611f87919061394d565b9450611edf565b8093505050505b919050565b600081604051602001611fad919061324e565b6040516020818303038152906040528051906020012060001c9050919050565b611fd8848484611a19565b611fe48484848461240e565b612023576040517f08c379a000000000000000000000000000000000000000000000000000000000815260040161201a906134bd565b60405180910390fd5b50505050565b606060405180602001604052806000815250905090565b606061204b8261180e565b61208a576040517f08c379a00000000000000000000000000000000000000000000000000000000081526004016120819061367d565b60405180910390fd5b6000612094612029565b905060008151116120b457604051806020016040528060008152506120df565b806120be84611ded565b6040516020016120cf929190613265565b6040516020818303038152906040525b915050919050565b600081600001549050919050565b60606000825114156121185760405180602001604052806000815250905061228f565b6000604051806060016040528060408152602001614434604091399050600060036002855161214791906138f7565b612151919061394d565b600461215d919061397e565b9050600060208261216e91906138f7565b67ffffffffffffffff8111156121ad577f4e487b7100000000000000000000000000000000000000000000000000000000600052604160045260246000fd5b6040519080825280601f01601f1916602001820160405280156121df5781602001600182028036833780820191505090505b509050818152600183018586518101602084015b8183101561224e576003830192508251603f8160121c168501518253600182019150603f81600c1c168501518253600182019150603f8160061c168501518253600182019150603f81168501518253600182019150506121f3565b600389510660018114612268576002811461227857612283565b613d3d60f01b6002830352612283565b603d60f81b60018303525b50505050508093505050505b919050565b6122ae8282604051806020016040528060008152506125a5565b5050565b6122bb8261180e565b6122fa576040517f08c379a00000000000000000000000000000000000000000000000000000000081526004016122f1906135dd565b60405180910390fd5b806006600084815260200190815260200160002090805190602001906123219291906127fd565b505050565b6001816000016000828254019250508190555050565b6123d68383836040516024016123549392919061347f565b6040516020818303038152906040527fe3849f79000000000000000000000000000000000000000000000000000000007bffffffffffffffffffffffffffffffffffffffffffffffffffffffff19166020820180517bffffffffffffffffffffffffffffffffffffffffffffffffffffffff83818316178352505050506123db565b505050565b60008151905060006a636f6e736f6c652e6c6f679050602083016000808483855afa5050505050565b505050565b505050565b600061242f8473ffffffffffffffffffffffffffffffffffffffff16612600565b15612598578373ffffffffffffffffffffffffffffffffffffffff1663150b7a0261245861187a565b8786866040518563ffffffff1660e01b815260040161247a94939291906133b2565b602060405180830381600087803b15801561249457600080fd5b505af19250505080156124c557506040513d601f19601f820116820180604052508101906124c29190612cc4565b60015b612548573d80600081146124f5576040519150601f19603f3d011682016040523d82523d6000602084013e6124fa565b606091505b50600081511415612540576040517f08c379a0000000000000000000000000000000000000000000000000000000008152600401612537906134bd565b60405180910390fd5b805181602001fd5b63150b7a0260e01b7bffffffffffffffffffffffffffffffffffffffffffffffffffffffff1916817bffffffffffffffffffffffffffffffffffffffffffffffffffffffff19161491505061259d565b600190505b949350505050565b6125af8383612623565b6125bc600084848461240e565b6125fb576040517f08c379a00000000000000000000000000000000000000000000000000000000081526004016125f2906134bd565b60405180910390fd5b505050565b6000808273ffffffffffffffffffffffffffffffffffffffff163b119050919050565b600073ffffffffffffffffffffffffffffffffffffffff168273ffffffffffffffffffffffffffffffffffffffff161415612693576040517f08c379a000000000000000000000000000000000000000000000000000000000815260040161268a906135fd565b60405180910390fd5b61269c8161180e565b156126dc576040517f08c379a00000000000000000000000000000000000000000000000000000000081526004016126d3906134fd565b60405180910390fd5b6126e860008383612404565b6001600360008473ffffffffffffffffffffffffffffffffffffffff1673ffffffffffffffffffffffffffffffffffffffff168152602001908152602001600020600082825461273891906138f7565b92505081905550816002600083815260200190815260200160002060006101000a81548173ffffffffffffffffffffffffffffffffffffffff021916908373ffffffffffffffffffffffffffffffffffffffff160217905550808273ffffffffffffffffffffffffffffffffffffffff16600073ffffffffffffffffffffffffffffffffffffffff167fddf252ad1be2c89b69c2b068fc378daa952ba7f163c4a11628f55a4df523b3ef60405160405180910390a46127f960008383612409565b5050565b82805461280990613acc565b90600052602060002090601f01602090048101928261282b5760008555612872565b82601f1061284457805160ff1916838001178555612872565b82800160010185558215612872579182015b82811115612871578251825591602001919060010190612856565b5b50905061287f9190612883565b5090565b5b8082111561289c576000816000905550600101612884565b5090565b60006128b36128ae8461377d565b613758565b9050808382526020820190508260005b858110156128f357813585016128d98882612a36565b8452602084019350602083019250506001810190506128c3565b5050509392505050565b600061291061290b846137a9565b613758565b90508281526020810184848401111561292857600080fd5b612933848285613a8a565b509392505050565b600061294e612949846137da565b613758565b90508281526020810184848401111561296657600080fd5b612971848285613a8a565b509392505050565b6000813590506129888161439b565b92915050565b600082601f83011261299f57600080fd5b81356129af8482602086016128a0565b91505092915050565b6000813590506129c7816143b2565b92915050565b6000813590506129dc816143c9565b92915050565b6000815190506129f1816143c9565b92915050565b600082601f830112612a0857600080fd5b8135612a188482602086016128fd565b91505092915050565b600081359050612a30816143e0565b92915050565b600082601f830112612a4757600080fd5b8135612a5784826020860161293b565b91505092915050565b600081359050612a6f816143f7565b92915050565b600060208284031215612a8757600080fd5b6000612a9584828501612979565b91505092915050565b60008060408385031215612ab157600080fd5b6000612abf85828601612979565b9250506020612ad085828601612979565b9150509250929050565b600080600060608486031215612aef57600080fd5b6000612afd86828701612979565b9350506020612b0e86828701612979565b9250506040612b1f86828701612a60565b9150509250925092565b60008060008060808587031215612b3f57600080fd5b6000612b4d87828801612979565b9450506020612b5e87828801612979565b9350506040612b6f87828801612a60565b925050606085013567ffffffffffffffff811115612b8c57600080fd5b612b98878288016129f7565b91505092959194509250565b60008060408385031215612bb757600080fd5b6000612bc585828601612979565b9250506020612bd6858286016129b8565b9150509250929050565b60008060408385031215612bf357600080fd5b6000612c0185828601612979565b9250506020612c1285828601612a60565b9150509250929050565b600080600060608486031215612c3157600080fd5b600084013567ffffffffffffffff811115612c4b57600080fd5b612c578682870161298e565b935050602084013567ffffffffffffffff811115612c7457600080fd5b612c8086828701612a36565b9250506040612c9186828701612a60565b9150509250925092565b600060208284031215612cad57600080fd5b6000612cbb848285016129cd565b91505092915050565b600060208284031215612cd657600080fd5b6000612ce4848285016129e2565b91505092915050565b600060208284031215612cff57600080fd5b6000612d0d84828501612a21565b91505092915050565b600060208284031215612d2857600080fd5b6000612d3684828501612a60565b91505092915050565b612d4881613a0c565b82525050565b612d5781613a1e565b82525050565b6000612d6882613820565b612d728185613836565b9350612d82818560208601613a99565b612d8b81613c65565b840191505092915050565b612d9f81613a56565b82525050565b6000612db08261382b565b612dba8185613847565b9350612dca818560208601613a99565b612dd381613c65565b840191505092915050565b6000612de98261382b565b612df38185613858565b9350612e03818560208601613a99565b80840191505092915050565b60008154612e1c81613acc565b612e268186613858565b94506001821660008114612e415760018114612e5257612e85565b60ff19831686528186019350612e85565b612e5b8561380b565b60005b83811015612e7d57815481890152600182019150602081019050612e5e565b838801955050505b50505092915050565b6000612e9b602583613858565b9150612ea682613c76565b602582019050919050565b6000612ebe603283613847565b9150612ec982613cc5565b604082019050919050565b6000612ee1602583613847565b9150612eec82613d14565b604082019050919050565b6000612f04601c83613847565b9150612f0f82613d63565b602082019050919050565b6000612f27600783613858565b9150612f3282613d8c565b600782019050919050565b6000612f4a602483613847565b9150612f5582613db5565b604082019050919050565b6000612f6d601983613847565b9150612f7882613e04565b602082019050919050565b6000612f90606383613858565b9150612f9b82613e2d565b606382019050919050565b6000612fb3602c83613847565b9150612fbe82613ec8565b604082019050919050565b6000612fd6600d83613858565b9150612fe182613f17565b600d82019050919050565b6000612ff9603883613847565b915061300482613f40565b604082019050919050565b600061301c602a83613847565b915061302782613f8f565b604082019050919050565b600061303f602983613847565b915061304a82613fde565b604082019050919050565b6000613062602e83613847565b915061306d8261402d565b604082019050919050565b6000613085600283613858565b91506130908261407c565b600282019050919050565b60006130a8602083613847565b91506130b3826140a5565b602082019050919050565b60006130cb603183613847565b91506130d6826140ce565b604082019050919050565b60006130ee603d83613847565b91506130f98261411d565b604082019050919050565b6000613111602c83613847565b915061311c8261416c565b604082019050919050565b6000613134602f83613847565b915061313f826141bb565b604082019050919050565b6000613157600a83613858565b91506131628261420a565b600a82019050919050565b600061317a602183613847565b915061318582614233565b604082019050919050565b600061319d601d83613858565b91506131a882614282565b601d82019050919050565b60006131c0600983613847565b91506131cb826142ab565b602082019050919050565b60006131e3603183613847565b91506131ee826142d4565b604082019050919050565b6000613206601183613847565b915061321182614323565b602082019050919050565b6000613229602a83613847565b91506132348261434c565b604082019050919050565b61324881613a80565b82525050565b600061325a8284612dde565b915081905092915050565b60006132718285612dde565b915061327d8284612dde565b91508190509392505050565b60006132958286612dde565b91506132a082612f1a565b91506132ac8285612dde565b91506132b88284612dde565b9150819050949350505050565b60006132d18287612e0f565b91506132dd8286612dde565b91506132e98285612e0f565b91506132f58284612dde565b915061330082612fc9565b915081905095945050505050565b600061331982612e8e565b91506133258284612dde565b915081905092915050565b600061333b8261314a565b91506133478285612dde565b915061335282612f83565b915061335e8284612dde565b915061336982613078565b91508190509392505050565b600061338082613190565b915061338c8284612dde565b915081905092915050565b60006020820190506133ac6000830184612d3f565b92915050565b60006080820190506133c76000830187612d3f565b6133d46020830186612d3f565b6133e1604083018561323f565b81810360608301526133f38184612d5d565b905095945050505050565b60006040820190506134136000830185612d3f565b613420602083018461323f565b9392505050565b600060208201905061343c6000830184612d4e565b92915050565b60006020820190506134576000830184612d96565b92915050565b600060208201905081810360008301526134778184612da5565b905092915050565b600060608201905081810360008301526134998186612da5565b90506134a8602083018561323f565b6134b56040830184612d3f565b949350505050565b600060208201905081810360008301526134d681612eb1565b9050919050565b600060208201905081810360008301526134f681612ed4565b9050919050565b6000602082019050818103600083015261351681612ef7565b9050919050565b6000602082019050818103600083015261353681612f3d565b9050919050565b6000602082019050818103600083015261355681612f60565b9050919050565b6000602082019050818103600083015261357681612fa6565b9050919050565b6000602082019050818103600083015261359681612fec565b9050919050565b600060208201905081810360008301526135b68161300f565b9050919050565b600060208201905081810360008301526135d681613032565b9050919050565b600060208201905081810360008301526135f681613055565b9050919050565b600060208201905081810360008301526136168161309b565b9050919050565b60006020820190508181036000830152613636816130be565b9050919050565b60006020820190508181036000830152613656816130e1565b9050919050565b6000602082019050818103600083015261367681613104565b9050919050565b6000602082019050818103600083015261369681613127565b9050919050565b600060208201905081810360008301526136b68161316d565b9050919050565b600060208201905081810360008301526136d6816131b3565b9050919050565b600060208201905081810360008301526136f6816131d6565b9050919050565b60006020820190508181036000830152613716816131f9565b9050919050565b600060208201905081810360008301526137368161321c565b9050919050565b6000602082019050613752600083018461323f565b92915050565b6000613762613773565b905061376e8282613afe565b919050565b6000604051905090565b600067ffffffffffffffff82111561379857613797613c36565b5b602082029050602081019050919050565b600067ffffffffffffffff8211156137c4576137c3613c36565b5b6137cd82613c65565b9050602081019050919050565b600067ffffffffffffffff8211156137f5576137f4613c36565b5b6137fe82613c65565b9050602081019050919050565b60008190508160005260206000209050919050565b600081519050919050565b600081519050919050565b600082825260208201905092915050565b600082825260208201905092915050565b600081905092915050565b600061386e82613a56565b915061387983613a56565b9250817f7fffffffffffffffffffffffffffffffffffffffffffffffffffffffffffffff038313600083121516156138b4576138b3613ba9565b5b817f80000000000000000000000000000000000000000000000000000000000000000383126000831216156138ec576138eb613ba9565b5b828201905092915050565b600061390282613a80565b915061390d83613a80565b9250827fffffffffffffffffffffffffffffffffffffffffffffffffffffffffffffffff0382111561394257613941613ba9565b5b828201905092915050565b600061395882613a80565b915061396383613a80565b92508261397357613972613bd8565b5b828204905092915050565b600061398982613a80565b915061399483613a80565b9250817fffffffffffffffffffffffffffffffffffffffffffffffffffffffffffffffff04831182151516156139cd576139cc613ba9565b5b828202905092915050565b60006139e382613a80565b91506139ee83613a80565b925082821015613a0157613a00613ba9565b5b828203905092915050565b6000613a1782613a60565b9050919050565b60008115159050919050565b60007fffffffff0000000000000000000000000000000000000000000000000000000082169050919050565b6000819050919050565b600073ffffffffffffffffffffffffffffffffffffffff82169050919050565b6000819050919050565b82818337600083830152505050565b60005b83811015613ab7578082015181840152602081019050613a9c565b83811115613ac6576000848401525b50505050565b60006002820490506001821680613ae457607f821691505b60208210811415613af857613af7613c07565b5b50919050565b613b0782613c65565b810181811067ffffffffffffffff82111715613b2657613b25613c36565b5b80604052505050565b6000613b3a82613a80565b91507fffffffffffffffffffffffffffffffffffffffffffffffffffffffffffffffff821415613b6d57613b6c613ba9565b5b600182019050919050565b6000613b8382613a80565b9150613b8e83613a80565b925082613b9e57613b9d613bd8565b5b828206905092915050565b7f4e487b7100000000000000000000000000000000000000000000000000000000600052601160045260246000fd5b7f4e487b7100000000000000000000000000000000000000000000000000000000600052601260045260246000fd5b7f4e487b7100000000000000000000000000000000000000000000000000000000600052602260045260246000fd5b7f4e487b7100000000000000000000000000000000000000000000000000000000600052604160045260246000fd5b6000601f19601f8301169050919050565b7f68747470733a2f2f6e6674707265766965772e30786465762e636f6465732f3f60008201527f636f64653d000000000000000000000000000000000000000000000000000000602082015250565b7f4552433732313a207472616e7366657220746f206e6f6e20455243373231526560008201527f63656976657220696d706c656d656e7465720000000000000000000000000000602082015250565b7f4552433732313a207472616e736665722066726f6d20696e636f72726563742060008201527f6f776e6572000000000000000000000000000000000000000000000000000000602082015250565b7f4552433732313a20746f6b656e20616c7265616479206d696e74656400000000600082015250565b7f206c6576656c2000000000000000000000000000000000000000000000000000600082015250565b7f4552433732313a207472616e7366657220746f20746865207a65726f2061646460008201527f7265737300000000000000000000000000000000000000000000000000000000602082015250565b7f4552433732313a20617070726f766520746f2063616c6c657200000000000000600082015250565b7f222c20226465736372697074696f6e223a20224120686967686c79206163636c60008201527f61696d656420636f6c6c656374696f6e206f6620737175617265732e222c202260208201527f696d616765223a2022646174613a696d6167652f7376672b786d6c3b6261736560408201527f36342c0000000000000000000000000000000000000000000000000000000000606082015250565b7f4552433732313a206f70657261746f7220717565727920666f72206e6f6e657860008201527f697374656e7420746f6b656e0000000000000000000000000000000000000000602082015250565b7f3c2f746578743e3c2f7376673e00000000000000000000000000000000000000600082015250565b7f4552433732313a20617070726f76652063616c6c6572206973206e6f74206f7760008201527f6e6572206e6f7220617070726f76656420666f7220616c6c0000000000000000602082015250565b7f4552433732313a2062616c616e636520717565727920666f7220746865207a6560008201527f726f206164647265737300000000000000000000000000000000000000000000602082015250565b7f4552433732313a206f776e657220717565727920666f72206e6f6e657869737460008201527f656e7420746f6b656e0000000000000000000000000000000000000000000000602082015250565b7f45524337323155524953746f726167653a2055524920736574206f66206e6f6e60008201527f6578697374656e7420746f6b656e000000000000000000000000000000000000602082015250565b7f227d000000000000000000000000000000000000000000000000000000000000600082015250565b7f4552433732313a206d696e7420746f20746865207a65726f2061646472657373600082015250565b7f45524337323155524953746f726167653a2055524920717565727920666f722060008201527f6e6f6e6578697374656e7420746f6b656e000000000000000000000000000000602082015250565b7f4e756d626572206e6565647320746f20626520686967686572207468616e207460008201527f68652063757272656e74206d6178206d696e746564206e756d6265722e000000602082015250565b7f4552433732313a20617070726f76656420717565727920666f72206e6f6e657860008201527f697374656e7420746f6b656e0000000000000000000000000000000000000000602082015250565b7f4552433732314d657461646174613a2055524920717565727920666f72206e6f60008201527f6e6578697374656e7420746f6b656e0000000000000000000000000000000000602082015250565b7f7b226e616d65223a202200000000000000000000000000000000000000000000600082015250565b7f4552433732313a20617070726f76616c20746f2063757272656e74206f776e6560008201527f7200000000000000000000000000000000000000000000000000000000000000602082015250565b7f646174613a6170706c69636174696f6e2f6a736f6e3b6261736536342c000000600082015250565b7f4e6f74206f776e65720000000000000000000000000000000000000000000000600082015250565b7f4552433732313a207472616e736665722063616c6c6572206973206e6f74206f60008201527f776e6572206e6f7220617070726f766564000000000000000000000000000000602082015250565b7f4e6f742076616c69642061646472657373000000000000000000000000000000600082015250565b7f54686520746f74616c206d696e74656420616d6f756e7420686173206265656e60008201527f2065786365656465642e00000000000000000000000000000000000000000000602082015250565b6143a481613a0c565b81146143af57600080fd5b50565b6143bb81613a1e565b81146143c657600080fd5b50565b6143d281613a2a565b81146143dd57600080fd5b50565b6143e981613a56565b81146143f457600080fd5b50565b61440081613a80565b811461440b57600080fd5b5056fe416e204e465420772f20494420257320686173206265656e206d696e74656420746f2025734142434445464748494a4b4c4d4e4f505152535455565758595a6162636465666768696a6b6c6d6e6f707172737475767778797a303132333435363738392b2fa2646970667358221220cad9eab4a05ab731960ef44251150f80ee1c16253e2274a9dc36c5d476af5ce664736f6c634300080100333c73766720786d6c6e733d27687474703a2f2f7777772e77332e6f72672f323030302f73766727207072657365727665417370656374526174696f3d27784d696e594d696e206d656574272076696577426f783d273020302033353020333530273e3c7374796c653e2e62617365207b2066696c6c3a2077686974653b20666f6e742d66616d696c793a2073657269663b20666f6e742d73697a653a20323470783b207d3c2f7374796c653e3c726563742077696474683d273130302527206865696768743d2731303025272066696c6c3d27272f3e3c7465787420783d273530252720793d273530252720636c6173733d27626173652720646f6d696e616e742d626173656c696e653d276d6964646c652720746578742d616e63686f723d276d6964646c65273e",
  "linkReferences": {},
  "deployedLinkReferences": {}
}